:020000040800F2
:100000000000022055340008592E0008612E000817
:10001000692E0008712E0008792E000800000000EB
:10002000000000000000000000000000812E000819
:100030008F2E0008000000009D2E0008AB2E000847
:10004000A5340008A5340008A5340008A53400082C
:10005000A5340008A5340008A5340008A53400081C
:10006000A5340008A5340008A5340008A53400080C
:10007000B92E0008A5340008A5340008A5340008EE
:10008000A5340008A5340008A5340008A5340008EC
:10009000A5340008A5340008A5340008A5340008DC
:1000A000A5340008A5340008A5340008A5340008CC
:1000B000A5340008A5340008A5340008A5340008BC
:1000C000A5340008A5340008A5340008A5340008AC
:1000D000A5340008A5340008A5340008CD2E00087A
:1000E000A5340008A5340008A5340008A53400088C
:1000F000A5340008A5340008A5340008A53400087C
:10010000A5340008A5340008A5340008A53400086B
:10011000A5340008A5340008A5340008A53400085B
:10012000A5340008A5340008A5340008A53400084B
:10013000A5340008A5340008A5340008A53400083B
:10014000A5340008A5340008A5340008A53400082B
:10015000A5340008A5340008A5340008A53400081B
:10016000A5340008A5340008A5340008A53400080B
:10017000A5340008A5340008A534000800000000DC
:08018000A5340008A5340008B5
:1001900010B5054C237833B9044B13B10448AFF3C1
:1001A00000800123237010BD4802002000000000E1
:1001B0009CE9000808B5034B1BB103490348AFF3A2
:1001C000008008BD000000004C0200209CE90008EF
:1001D00001F0FF01102A2BDB10F0070F08D010F8F8
:1001E000013B013A8B422DD010F0070F42B3F6D1FC
:1001F000F0B441EA012141EA014122F007047FF015
:1002000000070023F0E80256083C85EA010586EA6B
:10021000010685FA47F5A3FA87F586FA47F6A5FAA7
:1002200087F68EB9EED1F0BC01F0FF0102F00702B3
:1002300032B110F8013B013A83EA010313B1F8D15E
:100240000020704701387047002D06BF354603383F
:10025000073815F0010F07D1013015F4807F02BF78
:10026000013015F4C03F0130F0BC0138704700BFC9
:10027000034613F8012B002AFBD1181A01387047E6
:1002800081F0004102E000BF83F0004330B54FEA47
:1002900041044FEA430594EA050F08BF90EA020FB4
:1002A0001FBF54EA000C55EA020C7FEA645C7FEA47
:1002B000655C00F0E2804FEA5454D4EB5555B8BF6A
:1002C0006D420CDD2C4480EA020281EA030382EADB
:1002D000000083EA010180EA020281EA0303362D6D
:1002E00088BF30BD11F0004F4FEA01314FF4801C40
:1002F0004CEA113102D0404261EB410113F0004F52
:100300004FEA03334CEA133302D0524263EB430308
:1003100094EA050F00F0A780A4F10104D5F1200EA6
:100320000DDB02FA0EFC22FA05F2801841F1000101
:1003300003FA0EF2801843FA05F359410EE0A5F1D5
:1003400020050EF1200E012A03FA0EFC28BF4CF006
:10035000020C43FA05F3C01851EBE37101F00045BC
:1003600007D54FF0000EDCF1000C7EEB00006EEBC9
:100370000101B1F5801F1BD3B1F5001F0CD3490853
:100380005FEA30004FEA3C0C04F101044FEA4452AA
:1003900012F5800F80F09A80BCF1004F08BF5FEA31
:1003A000500C50F1000041EB045141EA050130BD11
:1003B0005FEA4C0C404141EB0101013C28BFB1F523
:1003C000801FE9D291F0000F04BF01460020B1FA6E
:1003D00081F308BF2033A3F10B03B3F120020CDA41
:1003E0000C3208DD02F1140CC2F10C0201FA0CF01F
:1003F00021FA02F10CE002F11402D8BFC2F1200C84
:1004000001FA02F120FA0CFCDCBF41EA0C01904039
:10041000E41AA2BF01EB0451294330BD6FEA040482
:100420001F3C1CDA0C340EDC04F11404C4F120026D
:1004300020FA04F001FA02F340EA030021FA04F37F
:1004400045EA030130BDC4F10C04C4F1200220FAD6
:1004500002F001FA04F340EA0300294630BD21FA14
:1004600004F0294630BD94F0000F83F4801306BFDA
:1004700081F480110134013D4EE77FEA645C18BFCE
:100480007FEA655C29D094EA050F08BF90EA020F65
:1004900005D054EA000C04BF1946104630BD91EA5D
:1004A000030F1EBF0021002030BD5FEA545C05D160
:1004B0004000494128BF41F0004130BD14F580049F
:1004C0003CBF01F5801130BD01F0004545F0FE4113
:1004D00041F470014FF0000030BD7FEA645C1ABF48
:1004E000194610467FEA655C1CBF0B46024650EA7F
:1004F000013406BF52EA033591EA030F41F40021AB
:1005000030BD00BF90F0000F04BF0021704730B530
:100510004FF4806404F132044FF000054FF0000105
:1005200050E700BF90F0000F04BF0021704730B5C6
:100530004FF4806404F1320410F0004548BF40429B
:100540004FF000013EE700BF42004FEAE2014FEAF0
:1005500031014FEA02701FBF12F07F4393F07F4FCB
:1005600081F06051704732F07F4208BF704793F0CE
:100570007F4F04BF41F40021704730B54FF46074E1
:1005800001F0004521F000411CE700BF50EA0102E4
:1005900008BF704730B54FF000050AE050EA01028D
:1005A00008BF704730B511F0004502D5404261EBFD
:1005B00041014FF4806404F132045FEA915C3FF43E
:1005C000D8AE4FF003025FEADC0C18BF03325FEADB
:1005D000DC0C18BF033202EBDC02C2F1200300FA8C
:1005E00003FC20FA02F001FA03FE40EA0E0021FAB1
:1005F00002F11444BDE600BF70B54FF0FF0C4CF49F
:10060000E06C1CEA11541DBF1CEA135594EA0C0F50
:1006100095EA0C0F00F0DEF82C4481EA030621EA8B
:100620004C5123EA4C5350EA013518BF52EA0335C6
:1006300041F4801143F4801338D0A0FB02CE4FF078
:100640000005E1FB02E506F00042E0FB03E54FF0A8
:100650000006E1FB03569CF0000F18BF4EF0010EA0
:10066000A4F1FF04B6F5007F64F5407404D25FEA9C
:100670004E0E6D4146EB060642EAC62141EA55514F
:100680004FEAC52040EA5E504FEACE2EB4F1FD0C91
:1006900088BFBCF5E06F1ED8BEF1004F08BF5FEA0F
:1006A000500E50F1000041EB045170BD06F00046C1
:1006B00046EA010140EA020081EA0301B4EB5C046E
:1006C000C2BFD4EB0C0541EA045170BD41F4801166
:1006D0004FF0000E013C00F3AB8014F1360FDEBF8B
:1006E000002001F0004170BDC4F10004203C35DA67
:1006F0000C341BDC04F11404C4F1200500FA05F3EA
:1007000020FA04F001FA05F240EA020001F000428A
:1007100021F0004110EBD37021FA04F642EB060100
:100720005EEA430E08BF20EAD37070BDC4F10C042A
:10073000C4F1200500FA04F320FA05F001FA04F2EE
:1007400040EA020001F0004110EBD37041F10001DA
:100750005EEA430E08BF20EAD37070BDC4F12005E5
:1007600000FA05F24EEA020E20FA04F301FA05F24D
:1007700043EA020321FA04F001F0004121FA04F2F5
:1007800020EA020000EBD3705EEA430E08BF20EAC5
:10079000D37070BD94F0000F0FD101F000464000FF
:1007A00041EB010111F4801F08BF013CF7D041EA81
:1007B000060195F0000F18BF704703F00046520085
:1007C00043EB030313F4801F08BF013DF7D043EA56
:1007D0000603704794EA0C0F0CEA135518BF95EA0C
:1007E0000C0F0CD050EA410618BF52EA4306D1D193
:1007F00081EA030101F000414FF0000070BD50EAB2
:10080000410606BF1046194652EA430619D094EA3B
:100810000C0F02D150EA013613D195EA0C0F05D125
:1008200052EA03361CBF104619460AD181EA030179
:1008300001F0004141F0FE4141F470014FF0000031
:1008400070BD41F0FE4141F4780170BD70B54FF0CC
:10085000FF0C4CF4E06C1CEA11541DBF1CEA13554C
:1008600094EA0C0F95EA0C0F00F0A7F8A4EB05042E
:1008700081EA030E52EA03354FEA013100F0888025
:100880004FEA03334FF0805545EA131343EA1263EE
:100890004FEA022245EA111545EA10654FEA0026A3
:1008A0000EF000419D4208BF964244F1FD0404F55C
:1008B000407402D25B084FEA3202B61A65EB0305B8
:1008C0005B084FEA32024FF480104FF4002CB6EB75
:1008D000020E75EB030E22BFB61A754640EA0C00F5
:1008E0005B084FEA3202B6EB020E75EB030E22BF35
:1008F000B61A754640EA5C005B084FEA3202B6EB76
:10090000020E75EB030E22BFB61A754640EA9C0034
:100910005B084FEA3202B6EB020E75EB030E22BF04
:10092000B61A754640EADC0055EA060E18D04FEAC2
:10093000051545EA16754FEA06164FEAC30343EA62
:1009400052734FEAC2025FEA1C1CC0D111F4801F2F
:100950000BD141EA00014FF000004FF0004CB6E728
:1009600011F4801F04BF01430020B4F1FD0C88BFC7
:10097000BCF5E06F3FF6AFAEB5EB030C04BFB6EBD2
:10098000020C5FEA500C50F1000041EB045170BDC5
:100990000EF0004E4EEA113114EB5C04C2BFD4EBF2
:1009A0000C0541EA045170BD41F480114FF0000E76
:1009B000013C90E645EA060E8DE60CEA135594EAF2
:1009C0000C0F08BF95EA0C0F3FF43BAF94EA0C0FF5
:1009D0000AD150EA01347FF434AF95EA0C0F7FF46A
:1009E00025AF104619462CE795EA0C0F06D152EABE
:1009F00003353FF4FDAE1046194622E750EA4106A2
:100A000018BF52EA43067FF4C5AE50EA41047FF4B2
:100A10000DAF52EA43057FF4EBAE12E74FF0FF3C17
:100A200006E000BF4FF0010C02E000BF4FF0010CE8
:100A30004DF804CD4FEA410C7FEA6C5C4FEA430C61
:100A400018BF7FEA6C5C1BD001B050EA410C0CBFB0
:100A500052EA430C91EA030F02BF90EA020F002012
:100A6000704710F1000F91EA030F58BF994208BF79
:100A700090422CBFD8176FEAE37040F00100704736
:100A80004FEA410C7FEA6C5C02D150EA013C07D18D
:100A90004FEA430C7FEA6C5CD6D152EA033CD3D0D8
:100AA0005DF8040B704700BF8446104662468C46D2
:100AB0001946634600E000BF01B5FFF7B7FF002805
:100AC00048BF10F1000F01BD4DF808EDFFF7F4FF2E
:100AD0000CBF012000205DF808FB00BF4DF808EDB9
:100AE000FFF7EAFF34BF012000205DF808FB00BFDC
:100AF0004DF808EDFFF7E0FF94BF012000205DF8FE
:100B000008FB00BF4DF808EDFFF7CEFF94BF0120B2
:100B100000205DF808FB00BF4DF808EDFFF7C4FFAB
:100B200034BF012000205DF808FB00BF4FEA410CF4
:100B30007FEA6C5C02D150EA013C0AD14FEA430CD7
:100B40007FEA6C5C02D152EA033C02D14FF0000014
:100B500070474FF0010070474FEA410212F5001252
:100B600015D211D56FF47873B3EB625212D94FEAF4
:100B7000C12343F0004343EA505311F0004F23FADE
:100B800002F018BF404270474FF00000704750EA33
:100B9000013005D111F0004008BF6FF000407047F0
:100BA0004FF00000704700BF4A0011D212F500124A
:100BB00011D20DD56FF47873B3EB62520ED44FEAB5
:100BC000C12343F0004343EA505323FA02F0704735
:100BD0004FF00000704750EA013002D14FF0FF3073
:100BE00070474FF0000070474FEA4102B2F1E04316
:100BF00024BFB3F5001CDCF1FE5C0DD901F0004C04
:100C00004FEAC0024CEA5070B2F1004F40EB830053
:100C100008BF20F00100704711F0804F21D113F17F
:100C20003872BCBF01F00040704741F480114FEAB8
:100C30005252C2F11802C2F1200C10FA0CF320FA41
:100C400002F018BF40F001004FEAC1234FEAD3235E
:100C500003FA0CFC40EA0C0023FA02F34FEA4303C8
:100C6000CCE77FEA625307D150EA01331EBF4FF051
:100C7000FE4040F44000704701F0004040F0FE406C
:100C800040F40000704700BF53B94AB9002908BFBB
:100C900000281CBF4FF0FF314FF0FF3000F0A0B92B
:100CA000ADF1080C6DE904CE00F03CF8DDF804E08D
:100CB000DDE9022304B0704738B500220023044662
:100CC0000D46FFF70BFF28B920462946BDE83840FE
:100CD00000F00AB8204605F1004100F005F8404256
:100CE00061EB410138BD00BFD0B50C4B0022064678
:100CF0000F46FFF781FCFFF757FF0446FFF702FCA2
:100D0000074B0022FFF778FC02460B463046394677
:100D1000FFF7BAFAFFF748FF2146D0BD0000F03DCB
:100D20000000F0412DE9F047089D0C46002B4ED104
:100D300094468C458646B2FA82F262D94AB1C2F133
:100D40002003914020FA03F30CFA02FC194300FA45
:100D500002FE4FEA1C471FFA8CF6B1FBF7F44FEA8C
:100D60001E4307FB141143EA014304FB06F19942B9
:100D70000AD91CEB030304F1FF3080F01281994281
:100D800040F20F81023C6344591A1FFA8EF3B1FB03
:100D9000F7F007FB101143EA014300FB06F69E4201
:100DA0000AD91CEB030300F1FF3180F0FC809E4266
:100DB00040F2F980634402389B1B40EA0440002162
:100DC0001DB1D3400022C5E90032BDE8F0878B4257
:100DD00005D90DB1C5E9000100210846F5E7B3FAD0
:100DE00083F1002946D1A34202D39042C0F0F080A3
:100DF000861A64EB03030120002DE6D0C5E90063E9
:100E0000E3E7002A40F09080A1EB0C044FEA1C4875
:100E10001FFA8CF70121B4FBF8F64FEA1E4308FBDA
:100E2000164443EA044307FB06F0984208D91CEB3A
:100E3000030306F1FF3402D2984200F2CD80264629
:100E40001C1A1FFA8EF3B4FBF8F008FB104443EAB7
:100E5000044300FB07F79F4208D91CEB030300F192
:100E6000FF3402D29F4200F2B0802046DB1B40EAF2
:100E70000640A5E7C1F120068B4022FA06F71F4382
:100E800020FA06FC04FA01F343EA0C03F44000FAEA
:100E900001F8380C4FEA1349B4FBF0FE1FFA87FC47
:100EA00000FB1E4449EA04440EFB0CF9A14502FA7A
:100EB00001F20AD93C190EF1FF3A80F08480A14575
:100EC00040F28180AEF1020E3C44A4EB09041FFA0B
:100ED00083F9B4FBF0F300FB134449EA044403FB39
:100EE0000CFCA44507D93C1903F1FF3067D2A44597
:100EF00065D9023B3C4443EA0E40A0FB0293A4EBBD
:100F00000C049C42CE469C4651D34ED055B1B8EB12
:100F10000E0364EB0C0404FA06F6CB401E43CC40EF
:100F2000C5E90064002150E7C2F1200320FA03F173
:100F30000CFA02FC24FA03F394400C434FEA1C48D9
:100F400000FA02FE1FFA8CF7B3FBF8F008FB103131
:100F5000230C43EA014300FB07F1994208D91CEB3B
:100F6000030300F1FF362CD299422AD90238634498
:100F70005B1AA4B2B3FBF8F108FB113344EA034453
:100F800001FB07F3A34208D91CEB040401F1FF366F
:100F900013D2A34211D902396444E41A41EA004150
:100FA00039E70446F0E6084606E7C845AED2B9EB95
:100FB000020E63EB070C0138A8E73146EDE7034664
:100FC00099E73046D4E7D6467FE7634402384DE7D9
:100FD0000646234608460FE7023E634430E700BF5B
:100FE000704700BF80B582B000AF00237B600C4B20
:100FF0001B6B0B4A43F400131363094B1B6B03F485
:1010000000137B607B68002200210C2004F02BFF82
:101010000C2004F044FF00BF0837BD4680BD00BF70
:101020000038024080B485B000AF78600023FB60D8
:101030007B682C4A934206D27B68B3F1006F02D3DF
:101040000023FB6047E07B68274A934206D27B6817
:10105000244A934202D30123FB603CE07B68234A8D
:10106000934206D27B68204A934202D30223FB605C
:1010700031E07B681E4A934206D87B681B4A934244
:1010800002D30323FB6026E07B681A4A934206D80A
:101090007B68174A934202D90423FB601BE07B68FC
:1010A000154A934206D87B68124A934202D9052317
:1010B000FB6010E07B68114A934206D87B680E4AB9
:1010C000934202D90623FB6005E07B680B4A9342FA
:1010D00001D90723FB60FB6818461437BD465DF84D
:1010E000047B7047004000080080000800C0000832
:1010F000FFFF0008FFFF0108FFFF0308FFFF0508CF
:10110000B0B586B000AFF860B9607A6000237B614B
:10111000F868FFF787FF386105F036FB0221386970
:1011200005F0A0FC05F052FB05F02EFB19E0BA68B3
:101130007B6913441B78DBB200221C46154622460D
:101140002B46F968002005F0CBFA0346002B06D1A8
:10115000FB680133FB607B6901337B6101E005F0D3
:1011600045FB7A697B689A42E1D305F02FFB0023A7
:1011700018461837BD46B0BD80B485B000AFF860E2
:10118000B9607A600DE0FB681B78DAB2BB681A7050
:10119000FB680133FB60BB680133BB607B68013BCC
:1011A0007B607B68002BEED100BF00BF1437BD46CB
:1011B0005DF8047B7047000080B58AB000AF07F18E
:1011C000140300221A605A609A60DA601A610023E0
:1011D0003B613B4B1B6B3A4A43F080031363384B34
:1011E0001B6B03F080033B613B690023FB60344BC6
:1011F0001B6B334A43F001031363314B1B6B03F04A
:101200000103FB60FB680023BB602D4B1B6B2C4A6A
:1012100043F0020313632A4B1B6B03F00203BB6012
:10122000BB6800237B60264B1B6B254A43F00803F9
:101230001363234B1B6B03F008037B607B68012265
:101240004FF480511F4805F0F1FD012240F20621C4
:101250001D4805F0EBFD002201211B4805F0E6FDCD
:101260004FF480537B610123BB610023FB610223A8
:101270003B6207F114031946124805F03BFC40F2AB
:1012800006237B610123BB610023FB6102233B62D8
:1012900007F1140319460C4805F02CFC01237B616F
:1012A0000123BB610223FB6102233B6207F11403AC
:1012B0001946054805F01EFC00BF2837BD4680BD15
:1012C0000038024000040240000C024080B582B0A9
:1012D00000AF7860391D01230122044807F083FB29
:1012E0007B6818460837BD4680BD00BFC006002099
:1012F00080B500AF1A4803F0E8FA0346002B02D08D
:10130000174803F0B5FB164803F0EFFA0346002B2D
:1013100002D0134803F07DFB114803F014FB034691
:10132000002B05D00E4803F091FB0D4802F02EFB78
:101330000B4803F05EFB0346002B05D0084803F082
:1013400085FB074802F022FB054803F0DEFA03465E
:10135000002B02D0024803F079FB00BF80BD00BF24
:101360000800002080B582B000AF78607B681B6801
:101370000A4A93420DD14FF400720949094807F017
:10138000C4FB094B1B681A68074B1B6822F0080254
:101390001A6000BF0837BD4680BD00BF004800404E
:1013A000D4030020040700204807002080B582B045
:1013B00000AF78600B467B807B681B68074A9342CE
:1013C00008D1074B01229A70054A7B889380054813
:1013D00007F000FC00BF0837BD4680BD0048004054
:1013E000680200200407002080B487B000AFF860D6
:1013F000B9607A6000237B6116E07B69FA68134468
:101400001A78BB681B789A420BD17B690133FA6862
:1014100013441A78BB6801331B789A4201D17B6967
:1014200008E07B6902337B617A697B689A42E4DB7E
:101430004FF0FF3318461C37BD465DF8047B7047FC
:1014400080B588B000AFF860B9607A603B60B8687A
:10145000FEF70EFF03467B610023FB610AE0FB6998
:10146000BA681A44FB69F9680B4412781A70FB6970
:101470000133FB61FA697B699A42F0DB7B69BB61EE
:101480000DE0BA697B69D31A1A467B681A44BB69B6
:10149000F9680B4412781A70BB690133BB617A6931
:1014A0003B681344BA699A42EBDB7A693B681344A0
:1014B0001A46FB6813442A221A707A693B6813445F
:1014C000013318462037BD4680BD80B588B000AFD7
:1014D000F860B9607A60FB70B868FEF7C9FE034631
:1014E0007B610023FB610AE0FB69BA681A44FB696F
:1014F000F9680B4412781A70FB690133FB61FA69D1
:101500007B699A42F0DB7B69BB610DE0BA697B695C
:10151000D31A1A467B681A44BB69F9680B441278DF
:101520001A70BB690133BB617A69BB6A1344BA693B
:101530009A42EBDB7A69BB6A13441A46FB68134490
:10154000FA781A707A69BB6A13440133FA68134453
:101550002A221A707A69BB6A13440233184620376C
:10156000BD4680BD80B487B000AFF860B9607A60D6
:1015700000237B610EE07B69FA6813441A787B696B
:10158000B9680B441B789A4201D0002307E07B69BD
:1015900001337B617A697B689A42ECDB0123184650
:1015A0001C37BD465DF8047B70470000000000005A
:1015B000B0B5ADF58D6D02AF07F2144300221A608D
:1015C0005A609A6007F57E7300221A605A609A602A
:1015D000DA601A615A6107F57673202200211846F5
:1015E00009F03FFD07F5737300221A605A601A81F3
:1015F00007F58C63A3F59073184689231A460021DA
:1016000009F02FFD07F58C63A3F5D67318468923DF
:101610001A46002109F025FD07F58C63A3F50E732A
:10162000184689231A46002109F01BFD07F58C6333
:10163000A3F53173184689231A46002109F011FDDC
:1016400007F58C63A3F55473184689231A460021C5
:1016500009F007FD07F58C63A3F564731846402372
:101660001A46002109F0FDFC07F58C63A3F56E73A3
:10167000184628231A46002109F0F3FC0023C7F876
:10168000543407F58C63A3F57973184629231A4659
:10169000002109F0E6FC07F58C63A3F58B634FF698
:1016A000FF721A8007F58C63A3F25C4300221A8054
:1016B00004F052FA01F0BAFAFFF77EFDFFF792FC50
:1016C00001F024FB01F0BAFD01F0E2FD01F0E0FCC5
:1016D00001F030FD04F0A6FA03461946BA4809F0B5
:1016E0003BFCBA4801F0A6FFB84801F0C7FF03462B
:1016F000002B0FD1B54802F094F8B44802F04FFC2B
:10170000B24802F089FEB14802F063FC0023C7F83A
:101710005C341DE004F086FA014640F26513AC4AE1
:10172000AC4809F019FC00BFFDE7D7F85C344FF472
:10173000966202FB03F107F58C63A3F56473D7F897
:101740005C2443F82210D7F85C340133C7F85C34CA
:10175000A14B9B781A46D7F85C349342E5D300231B
:10176000C7F858341AE0D7F8583441F6E84202FB7B
:1017700003F3994A927811464FF4966201FB02F204
:10178000991807F58C63A3F56E73D7F8582443F8BE
:101790002210D7F858340133C7F858348E4BDB7811
:1017A0001A46D7F858349342DDD38B4BDB781A4670
:1017B00041F6E84303FB02F2874B9B7819464FF44E
:1017C000966301FB03F31344C7F8543402228349A0
:1017D0008348FFF7D1FC04F025FA01467F4B1B78C4
:1017E0001A467E4B5B787F4809F0B6FB4FF40072D7
:1017F0007D497E4807F089F97D4B1B681A687C4B50
:101800001B6822F008021A60FBE17A4B9B78002BE0
:1018100000F0F78107F17C0329220021184609F026
:1018200020FC7549704809F024FC0346002B27D0A2
:1018300004F0F8F901466C4BDB781A466A4B1B79C9
:101840006E4809F089FB02226D496448FFF78AFE61
:10185000034683F00103DBB2002B0AD0624BB3F8DE
:1018600003309AB25D4B1A8002225C495C48FFF754
:1018700047FC604B9A8864235B495C4807F0B3F8E7
:101880006049594809F0F5FB0346002B55D004F098
:10189000C9F9034619465C4809F05EFB07F58C63FD
:1018A000A3F57973504A0B321068516803C311894C
:1018B000927A19809A7007F17C03022247491846F0
:1018C000FFF750FE0346002B00F0848107F58C6380
:1018D000A3F579739A78404B9B789A4280F07A818D
:1018E0003E4B1A88494B9A8007F58C63A3F57973B0
:1018F0009A78464B9A7107F58C63A3F57973D3F800
:101900000330424A936007F58C63A3F57973D3F8EB
:1019100007303E4AD3603D4B01221A703B4B9B7906
:10192000002B02D1394B01225A70324B9A88642322
:101930002D492E4807F057F84CE135492A4809F05F
:1019400098FB0346002B69D004F06CF90346194656
:10195000304809F001FB07F58C63A3F57973224A3F
:101960000B330B321188927819809A7007F17C033F
:101970000B33022228491846FFF7F4FD0346002BDB
:1019800008D007F58C63A3F579735A7B1F4B9B79BD
:101990009A420CD007F1080107F17C030B330222B5
:1019A0001846FFF7DFFD0346002B00F013811022DD
:1019B0000021164809F055FB0E4B9A8864230A490A
:1019C0000A4807F010F805E1B8E90008080000200F
:1019D000DCE90008F0E900080000002064020020B3
:1019E000000006081CEA0008D403002004070020B9
:1019F000480700206802002044EA000848EA00087E
:101A0000D70300206CEA000878EA0008980200205A
:101A100098EA0008A4EA00089C02002036493748EA
:101A200009F027FB0346002B48D004F0FBF80346DF
:101A30001946334809F090FA07F58C63A3F57973DA
:101A40002E4A14330F321188927819809A7007F158
:101A50007C03143302222B491846FFF783FD03460B
:101A6000002B0CD107F1080107F17C03143302228B
:101A70001846FFF777FD0346002B00F0AB8007F513
:101A80008C63A3F579739B7D052B00F2A38007F58A
:101A90008C63A3F579739B7D002B00F09B8007F589
:101AA0008C63A3F579739A7D174B1A71174B9A883B
:101AB00064231249164806F096FF8BE015490F483B
:101AC00009F0D7FA0346002B2AD004F0ABF80346FE
:101AD0001946114809F040FA104B1B78002B79D0B9
:101AE0000A4B01221A70094B9A886423034908485B
:101AF00006F079FF6EE000BFC4EA0008D4030020BE
:101B0000D4EA0008640200200000002068020020DF
:101B100004070020F8EA000800EB00089802002003
:101B2000AC49AD4809F0A5FA0346002B52D004F0A9
:101B300079F803461946A94809F00EFA4FF40072E5
:101B40000021A54809F08DFAA54B9A7807F58C631A
:101B5000A3F57973DA75A24B1A7907F58C63A3F5AF
:101B600079735A769E4BDA7807F58C63A3F579730F
:101B70001A769C4B9A8807F58C63A3F579735A8380
:101B8000984B9A7907F58C63A3F579731A77954B7F
:101B90009A6807F58C63A3F57973C3F81D20914B00
:101BA000DA6807F58C63A3F57973C3F8212007F190
:101BB0007C0303F117020E238B498748FFF740FC93
:101BC000C7F82004D7F820349AB2642382498748A2
:101BD00006F009FF4FF4007200217F4809F041FA36
:101BE0004FF400727C49814806F08FFF804B1B68E0
:101BF0001A687F4B1B6822F008021A607D4B002296
:101C00009A707C4B1B7883F00103DBB2002B7FF4CE
:101C1000FCAD4FF400727049744806F076FF744BC7
:101C20001B681A68724B1B6822F008021A604FF09A
:101C3000804300225A62704806F0A2FB694B5B7831
:101C4000002B02D06B4B01225A706A4B5B7883F0F9
:101C50000103DBB2002B00F0A580684802F0E9F830
:101C6000664802F0D9FB654802F0FBF8634801F0D2
:101C7000DCFE624B9B7E03F06003002B05D15F4BC3
:101C8000DB7E03F00203002BF0D05C4B9B7E03F065
:101C90006003002B00F083804FF080435B6A554A5D
:101CA0009360FFF725FB07F588738922002118460A
:101CB00009F0D7F9514802F04FFC0346C7F8283421
:101CC000D7F82834002BB9DDD7F8282407F5887316
:101CD00019464A4802F078FC07F58C63A3F5547363
:101CE0005B7A102BAAD107F58C63A3F554731B7B89
:101CF00087F8273407F58C63A3F55473DB7A87F8EC
:101D00002634374B9B7897F827249A4296D2344B47
:101D10001B7997F826249A4290D24FF080435B6A51
:101D2000344AD360334BDA68324B9B689A4214D9F9
:101D300097F8272407F58C63A3F5647353F82230D2
:101D4000274A12881A442B4BDB681A44294B9B689C
:101D50004FF08041D31A4B6216E097F8272407F51D
:101D60008C63A3F5647353F822301D4A12881A4419
:101D7000204BDB681A441F4B9B68D31A4FF08042FC
:101D800003F5C333A0335362154A97F82634D37151
:101D9000184B01225A70174B0022DA714EE7FFF7F9
:101DA000A7FA4BE700BF4FF080435B6A002BFAD0E5
:101DB0004FF080435B6A092BF5D8094BDB791A4653
:101DC000074B1B79013B9A421AD1054B0022DA716D
:101DD0001CE000BF1CEB0008D403002028EB000827
:101DE000000000209802002048EB000804070020B3
:101DF0004807002068020020780600200800002024
:101E0000954BDB790133DAB2934BDA7107F2144365
:101E10000C220021184609F024F9904BDB78002BA6
:101E200056D08E4B9B78012B11D1022387F81534A5
:101E300007F58C63A3F57973DB89A7F8183407F5E8
:101E40008C63A3F579731B7C87F81A3416E0834BF7
:101E50009B78022B12D1042387F8153407F58C6385
:101E6000A3F57973B3F811309BB2A7F8183407F5CE
:101E70008C63A3F57973DB7C87F81A34774BDB78B6
:101E8000013BDAB2754BDA70744BDB78002B22D150
:101E9000724B9B78012B0BD107F17C030E3303228D
:101EA0000021184609F0DDF86C4B00229A7012E010
:101EB0006A4B9B78022B0ED107F17C03113303226E
:101EC0000021184609F0CDF8644B00229A7002E018
:101ED000002387F81534614B5B78002B00F0B48049
:101EE0004FF080435B6A5E4A13605E4B9B6A01332E
:101EF0005C4A936200BF4FF080435B6A632BFAD960
:101F0000102387F81434544BDB7987F816340023F8
:101F100087F8173407F5507389220021184609F015
:101F2000A0F807F58C63A3F590721378012161F393
:101F30000203137007F58C63A3F5907213786FF3A7
:101F4000C303137007F58C63A3F5907213786FF3D6
:101F50000413137007F58C63A3F5907213786FF375
:101F60004513137007F58C63A3F59072137843F053
:101F70004003137007F58C63A3F590725378022128
:101F800061F38303537007F58C63A3F59072537864
:101F9000012161F30513537007F58C63A3F590726B
:101FA0005378022161F38713537007F58C63A3F50F
:101FB0009073002242F03802DA70002242F03802B8
:101FC0001A7107F5507305330222FF21184609F0F4
:101FD00048F8224B9A8807F58C63A3F59073A3F811
:101FE000072007F58C63A3F59073093307F21442B9
:101FF000106818609188927999809A711A4801F056
:102000005CFF194802F008FA07F5507310221946D0
:10201000154802F05FFA0021134801F066FF1248EC
:1020200001F003FD104B5B7E5BB2002BF7DA4FF043
:1020300080435B6A0A4A5360FFF75AF94FF08043C6
:102040005B6A074A9360B1E1034B00225A71054B6A
:1020500000229A718EE100BF00000020980200204B
:10206000A8020020680200200800002000BF4FF0F6
:1020700080435A6AA84B5B79194607F58C63A3F530
:10208000647353F821309A42F1D3A44B9A79A24B4E
:102090005B799A4240F0BA804FF080435B6AA04A75
:1020A000136000BF4FF080435A6A9B4B5B7919461F
:1020B00007F58C63A3F5647353F8213064339A42B7
:1020C000F0D3102387F81434934BDB7987F8163458
:1020D000914B5B7987F8173407F5507389220021FB
:1020E000184608F0BEFF07F58C63A3F590721378CD
:1020F000012161F30203137007F58C63A3F590725D
:1021000013786FF3C303137007F58C63A3F5907214
:1021100013786FF30413137007F58C63A3F59072B3
:1021200013786FF34513137007F58C63A3F5907262
:10213000137843F04003137007F58C63A3F5907296
:102140005378022161F38303537007F58C63A3F581
:1021500090725378012161F30513537007F58C6376
:10216000A3F590725378022161F38713537007F53A
:102170008C63A3F59073002242F03802DA700022DB
:1021800042F038021A7107F5507305330222FF211D
:10219000184608F066FF614B9A8807F58C63A3F533
:1021A0009073A3F8072007F58C63A3F590730933A8
:1021B00007F21442106818609188927999809A7198
:1021C000584801F07AFE574802F026F907F5507397
:1021D00010221946534802F07DF90021514801F0C0
:1021E00084FE504801F021FC4E4B5B7E5BB2002B1D
:1021F000F7DA4FF080435B6A494A5360FFF778F89B
:102200004FF080435B6A464A9360ADE0464B9B7952
:1022100083F00103DBB2002B00F0A6804FF41671AF
:10222000404801F09BFC3F4801F0EEFB3D4801F0C7
:1022300000FE3C4802F0F0F83A4801F012FE39483E
:1022400001F0F3FB374B9B7E03F06003002B05D1BD
:10225000344BDB7E03F00203002BF0D04FF08043C1
:102260005B6A314A9360FFF743F82E4B9B7E03F085
:102270006003002B78D02B4802F06EF90346C7F8B4
:102280005034D7F85034002B6EDD07F55073892297
:102290000021184608F0E5FED7F8502407F55073E2
:1022A0001946204802F090F907F58C63A3F5907366
:1022B0005B7A102B58D14FF080435B6A1A4AD36087
:1022C000194B9B7983F00103DBB2002B4CD0164BEA
:1022D0009B6A0133144A9362134BDA68124B9B6872
:1022E0009A4223D907F58C63A3F590731B7B1A469A
:1022F00007F58C63A3F5647353F82230064A1288FD
:102300001A44094BD968084B9B68CB1A4FF080419F
:1023100013444B6225E000BF00000020980200201B
:10232000A8020020080000206802002007F58C6346
:10233000A3F590731B7B1A4607F58C63A3F56473B2
:1023400053F82230244A12881A44244BD968234B6C
:102350009B68CB1A13444FF0804203F5C333A0337C
:1023600053621E4B01229A711B4B5B790133DAB227
:10237000194B5A71184B5A79174B9B789A42FFF4B4
:1023800075AE164B9B79002B03D0144B0022DA71EB
:102390000CE0124BDB790133DAB2104BDA710F4BE0
:1023A000DB79042B02D90D4B00225A700A4B002214
:1023B0009A710A4B00221A76074BDB781A461346AD
:1023C0009B0013445B001A4407F10C0300211846DC
:1023D00008F047FEC5E200BF0000002068020020B0
:1023E00000BF4FF080435A6AD54B9B79194607F5D9
:1023F0008C63A3F56E7353F821309A42F1D34FF4F6
:102400001671D04801F0AAFBCE4801F0FDFACD4884
:1024100001F00FFDCB4801F0FFFFCA4801F021FD9C
:10242000C84801F002FBC74B9B7E03F06003002B02
:1024300005D1C44BDB7E03F00203002BF0D04FF03C
:102440008043BF4A927910465A6ABF49831C9B0059
:102450000B445A60FEF74CFFBA4B9B7E03F06003BF
:10246000002B00F06C82B74802F076F80346C7F8FC
:102470004034D7F84034002B40F36D8207F52D73BC
:1024800089220021184608F0ECFDD7F8402407F512
:102490002D731946AB4802F097F807F58C63A3F546
:1024A000D6735B7A212B40F0568207F57E73182293
:1024B0000021184608F0D5FD07F58C63A3F5D67208
:1024C00007F57E7302F1090420686168A26807C3FA
:1024D000227B1A7007F57E73053308229B49184644
:1024E000FEF782FFC7F83C04D7F83C34B3F1FF3F56
:1024F00000F0318207F57E7310331946914802F0DF
:1025000079F8D7F83C34DA0F13445B10C7F8383445
:102510004FF080438A4A927910465A6A8A4900F1FC
:102520000C039B000B445A6000BF4FF080435A6A73
:10253000834B9B79194607F58C63A3F56E7353F8AB
:102540002130D7F83814013140F2145000FB01F16A
:102550000B449A42E9D34FF08043794A927910466E
:102560005A6A794900F116039B000B445A6007F53B
:102570000A7389220021184608F073FD07F5767367
:1025800020220021184608F06CFD07F58C63A3F5A6
:102590000E721378012161F30203137007F58C6347
:1025A000A3F50E7213786FF3C303137007F58C63F2
:1025B000A3F50E7213786FF30413137007F58C6391
:1025C000A3F50E7213786FF34513137007F58C6340
:1025D000A3F50E72137843F04003137007F58C6374
:1025E000A3F50E725378022161F38303537007F54C
:1025F0008C63A3F50E725378012161F305135370B8
:1026000007F58C63A3F50E725378022161F38713EB
:10261000537007F58C63A3F50E73002242F0380265
:10262000DA70002242F038021A7107F58C63A3F5C4
:10263000D673B3F807309AB207F58C63A3F50E731F
:10264000A3F80520424B9A8807F58C63A3F50E7317
:10265000A3F80720322387F8D8333D4B9B68C7F88F
:10266000D9333B4BDB68C7F8DD3307F2E13307F5BD
:1026700081621068186012791A712FA3D3E90023C0
:1026800007F58661C1E9002307F58663D3E90023D6
:102690002C4801F007FD02460B46C7E9FC2307F270
:1026A000E63307F57C721068186012791A7107F525
:1026B0008C63A3F50E7303F1090507F576740FCC4F
:1026C00028606960AA60EB602388A2782B82134699
:1026D000AB741C4801F0F1FB1A4801F09DFE07F5B0
:1026E0000A731C221946174801F0F4FE012115480F
:1026F00001F0FBFB134801F098F9124B5B7E5BB2D3
:10270000002BF7DA4FF080430D4A927910465A6A4F
:102710000D4900F120039B000B445A60FEF7E8FDD1
:102720004FF08043064A927910465A6A064900F1F2
:102730002A030FE0AFF3008090005F01000000006B
:102740000000002008000020A80200209C020020B9
:10275000980200209B000B445A6000BF4FF080435A
:102760005A6AB14B9B79194607F58C63A3F56E73D2
:1027700053F8213003F5C8539A42EFD34FF4167142
:10278000AA4801F0EBF9A94801F03EF9A74801F089
:1027900050FBA64801F040FEA44801F062FBA348AC
:1027A00001F043F9A14B9B7E03F06003002B05D1A0
:1027B0009E4BDB7E03F00203002BF0D04FF08043F2
:1027C000994A927910465A6A994900F134039B005C
:1027D0000B445A60FEF78CFD944B9B7E03F0600324
:1027E000002B00F09F80914801F0B6FE0346C7F829
:1027F0002C34D7F82C34002B40F3878007F5CE73A8
:1028000089220021184608F02CFC07F573730A2270
:102810000021184608F025FCD7F82C2407F5CE73C4
:102820001946824801F0D0FE07F58C63A3F5317399
:102830005B7A432B69D107F5CE73053302227D49BC
:10284000184608F0FEFB0346002B5ED107F58C63AB
:10285000A3F5317207F5737309321068516803C329
:1028600012891A80744B1B7E1A4607F10C0113461D
:102870009B0013445B0013440B4407F58C62A2F5E4
:102880003172B2F8072092B21A806B4B1B7E1A4647
:1028900097F8CD0307F58C63A3F2544113469B00D0
:1028A00013445B0013440B44023302461A70624B1C
:1028B0001B7E1A46D7F8CE030346184607F58C63ED
:1028C000A3F2544113469B0013445B0013440B4492
:1028D000033302461A60584B1B7E1A46D7F8D203C0
:1028E0000346184607F58C63A3F2544113469B0038
:1028F00013445B0013440B44073302461A604E4BEB
:102900001B7E0133DAB24C4B1A764FF08043464AB5
:10291000927910465A6A464900F13E039B000B44E7
:102920005A6018E04FF080433F4A927910465A6A45
:102930003F4900F13E039B000B445A600BE04FF00F
:102940008043394A927910465A6A394900F10C039A
:102950009B000B445A60344B9B790133DAB2324B03
:102960009A71314B9A79304BDB789A42FFF438AD4B
:1029700000BF4FF080435B6AD7F854249A42F8D8DE
:102980004FF080435B6A2A4AC2F824312A4B1B7EEF
:10299000002B32D0284B1B7E1A4613469B00134453
:1029A0005B00134414330121184607F0CDFA0346A7
:1029B000C7F84C34204B197E1F4B1B7E1A4613461A
:1029C0009B0013445B00134407F10C0200930B4679
:1029D0001A49D7F84C04FEF778FDC7F84804D7F831
:1029E00048349AB24FF47A73D7F84C14144805F06F
:1029F000FAFFD7F84C0407F0CBFA0F4B9B78002B6B
:102A000000F0F2800F49104808F033FB0346002B1A
:102A10001CD0094B9A8864230B49094805F0E3FF51
:102A200003F04BFAC9E000BF0000002008000020BE
:102A3000A80200209C0200206802002054EB00083D
:102A40000407002060EB0008D40300206A496B48AB
:102A500008F00FFB0346002B1DD0694B9B78002B21
:102A600040F0AB80664B01229A70654B0522DA700C
:102A700007F58C63A3F57973604A0E330832118829
:102A8000927819809A705F4B9A8864235B495E48FC
:102A900005F0A9FF91E05D49584808F0EAFA0346BD
:102AA000002B18D0564B02229A70554B0522DA7033
:102AB00007F58C63A3F57973504A113308321188F6
:102AC000927819809A704F4B9A8864234B494E48EC
:102AD00005F089FF71E04E49484808F0CAFA0346FC
:102AE000002B4CD04FF400720021444808F0B9FA92
:102AF000484B9A7807F58C63A3F57973DA75454BE3
:102B00001A7907F58C63A3F579735A76414BDA7815
:102B100007F58C63A3F579731A76394B9A8807F514
:102B20008C63A3F579735A83354B9A7907F58C63D7
:102B3000A3F579731A77324B9A6807F58C63A3F57E
:102B40007973C3F81D202E4BDA6807F58C63A3F563
:102B50007973C3F8212007F17C0303F117020E23D8
:102B60002D492648FEF76CFCC7F84404D7F84434D6
:102B70009AB264232149244805F035FF1DE0274916
:102B80001E4808F076FA0346002B16D04FF4007268
:102B900000211A4808F065FA1A4B9B6A1A46204928
:102BA000164808F0EBF91548FDF762FB03469AB2A8
:102BB00064231249144805F016FF4FF400720021F7
:102BC0000E4808F04EFA4FF400720C490E4805F01A
:102BD0009CFF144B1B681A68124B1B6822F00802FA
:102BE0001A60084B00229A704FF080435B6A0E4ACD
:102BF000C2F82831FFF722B868EB0008D4030020A0
:102C000098020020680200200407002070EB0008F2
:102C10001CEB00080000002048EB000878EB0008DF
:102C200084EB000848070020A802002080B594B07B
:102C300000AF07F1200330220021184608F011FAF6
:102C400007F10C0300221A605A609A60DA601A6178
:102C50000023BB60284B1B6C274A43F0805313644E
:102C6000254B1B6C03F08053BB60BB6800237B606B
:102C7000224B1B68214A43F4804313601F4B1B689F
:102C800003F480437B607B6801233B624FF4803315
:102C90007B620223BB634FF48003FB6304233B642A
:102CA000A0237B640223BB640423FB6407F120039D
:102CB000184604F0D5F80346002B01D000F020F8A8
:102CC0000F23FB6002233B6100237B614FF4A05381
:102CD000BB614FF48053FB6107F10C0305211846DB
:102CE00004F036FB0346002B01D000F009F800BFCA
:102CF0005037BD4680BD00BF003802400070004024
:102D000080B400AF72B600BF00BFFDE780B500AF72
:102D1000174B184A1A60164B4FF482725A60144BC4
:102D200000229A60124B0022DA60114B00221A61D5
:102D30000F4B00225A610E4B4FF400729A610C4BFC
:102D40000022DA610A4B00221A62094B00225A6201
:102D5000074B00229A62064B0A22DA62044804F00A
:102D600017FD0346002B01D0FFF7CAFF00BF80BD4F
:102D7000D40500200038004080B58AB000AF7860EC
:102D800007F1140300221A605A609A60DA601A612F
:102D90007B681B68194A93422CD100233B61184B76
:102DA0001B6C174A43F480431364154B1B6C03F4EC
:102DB00080433B613B690023FB60114B1B6B104A56
:102DC00043F0020313630E4B1B6B03F00203FB6023
:102DD000FB684FF460437B610223BB610023FB610E
:102DE00003233B6205237B6207F114031946054860
:102DF00003F080FE00BF2837BD4680BD003800408C
:102E0000003802400004024080B483B000AF0023C9
:102E10007B60104B5B6C0F4A43F4804353640D4B53
:102E20005B6C03F480437B607B6800233B60094B51
:102E30001B6C084A43F080531364064B1B6C03F071
:102E400080533B603B6800BF0C37BD465DF8047B98
:102E5000704700BF0038024080B400AF00BFFDE7FC
:102E600080B400AF00BFFDE780B400AF00BFFDE756
:102E700080B400AF00BFFDE780B400AF00BFFDE746
:102E800080B400AF00BFBD465DF8047B704780B4DE
:102E900000AF00BFBD465DF8047B704780B400AF53
:102EA00000BFBD465DF8047B704780B500AF02F0FF
:102EB000A5FE00BF80BD000080B500AF024803F052
:102EC000A5F900BF80BD00BF4807002080B500AF56
:102ED000024805F031FF00BF80BD00BF040700209D
:102EE00080B400AF01231846BD465DF8047B7047EF
:102EF00080B582B000AF7860396008F02BF90346E6
:102F000016221A604FF0FF3318460837BD4680BDC1
:102F100080B582B000AF78604FF0FF317868FFF77E
:102F2000E7FF00BFFDE780B586B000AFF860B9608D
:102F30007A6000237B610AE0AFF300800146BB6842
:102F40005A1CBA60CAB21A707B6901337B617A6914
:102F50007B689A42F0DB7B6818461837BD4680BD17
:102F600080B586B000AFF860B9607A6000237B61FD
:102F700009E0BB685A1CBA601B781846FEF7A6F930
:102F80007B6901337B617A697B689A42F1DB7B68FC
:102F900018461837BD4680BD80B483B000AF786056
:102FA0004FF0FF3318460C37BD465DF8047B704781
:102FB00080B483B000AF786039603B684FF4005252
:102FC0005A60002318460C37BD465DF8047B7047F5
:102FD00080B483B000AF7860012318460C37BD463B
:102FE0005DF8047B704780B485B000AFF860B960CD
:102FF0007A60002318461437BD465DF8047B70479D
:1030000080B586B000AF7860144A154BD31A7B6147
:103010007B693B61134B1B68002B02D1114B124A99
:103020001A60104B1A687B6813443A699A4207D2B7
:1030300008F090F803460C221A604FF0FF3309E0C5
:10304000084B1B68FB60074B1A687B681344054AF2
:103050001360FB6818461837BD4680BD000002208B
:10306000000400002C0600209809002080B400AF66
:10307000064BD3F88830054A43F47003C2F8883011
:1030800000BFBD465DF8047B704700BF00ED00E067
:1030900080B586B000AF07F1080300221A605A60BD
:1030A0009A60DA603B4600221A605A601F4B204A41
:1030B0001A601E4B40F23F125A601C4B00229A606D
:1030C0001A4B4CF24F32DA60184B00221A61174B40
:1030D00000225A61154B00229A61144805F000F94C
:1030E0000346002B01D0FFF70BFE4FF48053BB606B
:1030F00007F1080319460D4805F0AAF90346002B0D
:1031000001D0FFF7FDFD00233B6000237B603B46C1
:103110001946064805F09EFB0346002B01D0FFF739
:10312000EFFD00BF1837BD4680BD00BF3006002050
:103130000000014080B586B000AF07F1080300220F
:103140001A605A609A60DA603B4600221A605A6040
:103150001D4B4FF080421A601B4B4F225A601A4B96
:1031600000229A60184B194ADA60174B00221A6144
:10317000154B00229A61144805F0B2F80346002B63
:1031800001D0FFF7BDFD4FF48053BB6007F108038A
:1031900019460D4805F05CF90346002B01D0FFF7F6
:1031A000AFFD00233B6000237B603B461946064889
:1031B00005F050FB0346002B01D0FFF7A1FD00BF37
:1031C0001837BD4680BD00BF780600209F860100ED
:1031D00080B485B000AF78607B681B68154A934265
:1031E0000ED10023FB60144B5B6C134A43F00103C8
:1031F0005364114B5B6C03F00103FB60FB6812E04E
:103200007B681B68B3F1804F0DD10023BB600A4B74
:103210001B6C094A43F001031364074B1B6C03F05A
:103220000103BB60BB6800BF1437BD465DF8047B7B
:10323000704700BF000001400038024080B500AF79
:10324000104B114A1A600F4B104A5A600D4B002266
:103250009A600C4B0022DA600A4B00221A61094B7B
:103260000C225A61074B00229A61064B0022DA6158
:10327000044805F06BFB0346002B01D0FFF740FD2F
:1032800000BF80BDC00600200044004080841E00B6
:1032900080B500AF104B114A1A600F4B104A5A60AC
:1032A0000D4B00229A600C4B0022DA600A4B002280
:1032B0001A61094B0C225A61074B00229A61064B96
:1032C0000022DA61044805F041FB0346002B01D0DF
:1032D000FFF716FD00BF80BD040700200048004036
:1032E00080841E0080B58CB000AF786007F11C03AD
:1032F00000221A605A609A60DA601A617B681B6863
:103300004D4A93422CD10023BB614C4B1B6C4B4A62
:1033100043F400331364494B1B6C03F40033BB616B
:10332000BB6900237B61454B1B6B444A43F001039F
:103330001363424B1B6B03F001037B617B690C231E
:10334000FB6102233B6200237B620323BB620723F2
:10335000FB6207F11C031946394803F0CBFB67E019
:103360007B681B68374A934262D100233B61334B31
:103370001B6C324A43F480231364304B1B6C03F400
:1033800080233B613B690023FB602C4B1B6B2B4A6A
:1033900043F002031363294B1B6B03F00203FB6032
:1033A000FB684FF44063FB6102233B6200237B62B6
:1033B0000323BB620723FB6207F11C031946224863
:1033C00003F098FB214B224A1A60204B4FF0006219
:1033D0005A601E4B00229A601C4B0022DA601B4B85
:1033E0004FF480621A61194B00225A61174B002278
:1033F0009A61164B0022DA61144B00221A62134BB9
:1034000000225A62114802F069FD0346002B01D0E8
:10341000FFF776FC7B680D4A9A630C4A7B689363DE
:1034200000220021272002F01EFD272002F037FD98
:1034300000BF3037BD4680BD004400400038024028
:1034400000000240004800400004024048070020FD
:1034500028600240DFF834D00D480E490E4A0023A0
:1034600002E0D458C4500433C4188C42F9D30B4A38
:103470000B4C002301E013600432A242FBD3FFF7A0
:10348000F5FD07F06DFEFEF793F87047000002208F
:10349000000000204802002048F0000848020020F8
:1034A00098090020FEE780B489B000AFF860B960E9
:1034B0007A60FB707B68DB08FB61FA69BB689A4243
:1034C00028D2FA68FB691344BB617B6803F00703E9
:1034D0007B61FB78002B0DD0BB691B785AB20121B0
:1034E0007B6901FA03F35BB213435BB2DAB2BB69E7
:1034F0001A7010E0BB691B785AB201217B6901FA8E
:1035000003F35BB2DB435BB213405BB2DAB2BB697D
:103510001A7000E000BF2437BD465DF8047B704799
:1035200080B489B000AFF860B9607A607B68DB086E
:10353000FB61FA69BB689A4201D3002313E0FA6881
:10354000FB6913441B78FB767B6803F007037B6100
:10355000FA7E7B6942FA03F303F00103002B14BFE8
:1035600001230023DBB218462437BD465DF8047BF7
:10357000704780B487B000AFF860B9607A6000230C
:103580007B610CE07B69DB00BA6842FA03F1FA6800
:103590007B691344CAB21A707B6901337B617A6913
:1035A0007B689A42EED300BF00BF1C37BD465DF872
:1035B000047B704780B588B002AFF8600B467A6034
:1035C0007B817B89DBB23B757B891B0A9BB2DBB2BB
:1035D0007B7507F114030222009204222D21F86862
:1035E00002F04CFA032306222D21F86802F089FA32
:1035F000012306222D21F86802F083FA04230093A8
:103600007B680A222D21F86802F0D0F900230622F7
:103610002D21F86802F075FA00BF1837BD4680BD4D
:1036200080B483B000AF786000BF0C37BD465DF852
:10363000047B704780B483B000AF78607B680D4A2C
:103640001A607B680C4A9A637B680B4ADA637B6872
:10365000094A1A647B68084A5A647B68064A9A6475
:103660007B68054ADA6400BF0C37BD465DF8047B11
:10367000704700BF640000202136000880B586B086
:1036800002AF78600021786800F01CF97B681B6845
:10369000DB680521786898477B681B681B69786838
:1036A00098477B681B68DB680521786898477868CD
:1036B00000F0A9F8F860FB68274A934201D0012383
:1036C00045E07B68093304223821184607F0C9FC1D
:1036D0007B6809330422009200220321786802F0FB
:1036E000CDF97B680D3304220021184607F0B9FCA0
:1036F0000021786800F087FA0121786800F0A0FACC
:10370000786800F081F9786800F062FB786800F072
:10371000D0F90121786800F0D5F87B681B68DB6878
:10372000052178689847786800F018F87B681B686E
:10373000DB680521786898470221786800F0C2F8B4
:103740007B681B68DB68052178689847002318466A
:103750001037BD4680BD00BF3001CADE80B586B0DF
:1037600002AF786007F10C0304220021184607F02D
:1037700078FC07F1080302220021184607F071FCCB
:1037800007F10C030422009200223621786802F02F
:103790000DF907F108030222009206222D21786814
:1037A00002F004F901233B7303237B7300233B7274
:1037B00080237B7207F10C03042200920022362141
:1037C000786802F05BF907F10803022200920622F2
:1037D0002D21786802F052F97B681B68DB680521AF
:1037E0007868984700233B7302237B7307F10C032F
:1037F0000422009200223621786802F03FF900BFCF
:103800001037BD4680BD80B582B000AF7860002221
:103810000021786802F01DF9034618460837BD46B6
:1038200080BD80B584B000AF786000222621786822
:1038300002F00FF9F860FB6823F47F53FB60FB682C
:1038400043F4AA53FB60FB6800222621786802F04B
:103850006FF90023FB6000222621786802F0F9F856
:10386000F86000223621786802F0F3F8F860FB680F
:1038700043F40403FB60FB6800223621786802F001
:1038800057F94FF48873FB60FB682822362178686B
:1038900002F04EF9FB6843F47023FB60FB682822BA
:1038A0003621786802F044F9FB6823F47023FB604A
:1038B000FB6828223621786802F03AF900BF1037F9
:1038C000BD4680BD80B586B002AF78600B46FB7008
:1038D00007F10C0304220021184607F0C2FB07F190
:1038E0000C030422009200223621786802F05EF870
:1038F000FB78002B0DD17B681B689B6800217868E2
:10390000984700233B737B7B23F00103DBB27B737F
:1039100026E0FB78012B10D17B681B689B68002197
:10392000786898473B7B23F00303DBB23B733B7B18
:1039300043F00103DBB23B7312E0FB78022B0FD1A3
:103940007B681B689B680121786898473B7B23F064
:103950000303DBB23B733B7B43F00203DBB23B73FD
:1039600007F10C030122009200223621786802F050
:1039700085F807F10C0304220092002236217868B2
:1039800002F07CF800BF1037BD4680BD80B586B020
:1039900002AF786007F10C03042200920022362166
:1039A000786802F003F8FB7B23F01003DBB2FB73B3
:1039B00007F10C030422009200223621786802F0FD
:1039C0005DF8FB7B43F01003DBB2FB7307F10C03E4
:1039D0000422009200223621786802F04FF800BFDE
:1039E0001037BD4680BD80B584B002AF78607B687B
:1039F0000D330422009200220421786801F0D6FFE2
:103A000000BF0837BD4680BD80B584B002AF786086
:103A10007B680D330422009200220421786802F0B2
:103A20002DF800BF0837BD4680BD80B584B002AF19
:103A300078607B6819330522009200220F21786894
:103A400001F0B4FF00BF0837BD4680BD80B584B02B
:103A500002AF78607B6809330422009200220321C0
:103A6000786801F0A3FF00BF0837BD4680BD80B570
:103A700084B002AF78607B68093304220092002290
:103A80000321786801F0FAFF00BF0837BD4680BD0A
:103A900080B584B002AF78607B6811330422009255
:103AA00000220E21786801F081FF00BF0837BD4673
:103AB00080BD80B584B002AF78607B68113304228A
:103AC000009200220E21786801F0D8FF00BF08376D
:103AD000BD4680BD80B584B002AF78607B68153389
:103AE0000422009200221F21786801F05FFF00BFCE
:103AF0000837BD4680BD80B584B002AF78607B6872
:103B000015330422009200221F21786801F0B6FFCD
:103B100000BF0837BD4680BD80B584B002AF786075
:103B20007B681E330522009200220821786801F08C
:103B30003DFF00BF0837BD4680BD80B584B002AFF1
:103B400078607B681E330522009200220821786885
:103B500001F094FF00BF0837BD4680BD80B584B03A
:103B600002AF78600B467B80BB1C022200920022D1
:103B70000C21786801F082FF7B6803F10D007B88DF
:103B8000002B14BF01230023DBB21C220421FFF70A
:103B90008AFC00BF0837BD4680BD80B582B000AF4B
:103BA00078600B46FB707B6803F10D00FB78002208
:103BB0000421FFF778FC00BF0837BD4680BD80B503
:103BC00082B000AF78600B46FB707B6803F10D009C
:103BD000FB7803220421FFF766FC00BF0837BD46CF
:103BE00080BD80B582B000AF78600B46FB707B680B
:103BF00003F10D00FB7806220421FFF754FC00BFFF
:103C00000837BD4680BD80B582B000AF78600B46F6
:103C1000FB707B6803F10D00FB78002B14BF0123C0
:103C20000023DBB283F00103DBB203F00103DBB25C
:103C30000C220421FFF737FC00BF0837BD4680BDCA
:103C400080B582B000AF78600B46FB707B6803F1F3
:103C50000D00FB7809220421FFF725FC00BF08377F
:103C6000BD4680BD80B582B000AF78600B46FB706A
:103C70007B6803F10D00FB781D220421FFF713FC84
:103C800000BF0837BD4680BD80B582B000AF786008
:103C90000B46FB707B6803F11100FB7807220421BF
:103CA000FFF701FC00BF0837BD4680BD80B582B07C
:103CB00000AF78600B46FB707B6803F11100FB7866
:103CC0000D220421FFF7EFFB7B6803F11100FB7865
:103CD0000E220421FFF7E7FB00BF0837BD4680BD79
:103CE00080B582B000AF78600B46FB707B6803F153
:103CF0001100FB7812220521FFF7D5FB7B6803F149
:103D00001100FB780F220521FFF7CDFB7B6803F143
:103D10001100FB780C220521FFF7C5FB7B6803F13E
:103D20001100FB7810220521FFF7BDFB7B6803F132
:103D30001100FB781A220421FFF7B5FB7B6803F121
:103D40001100FB781D220421FFF7ADFB00BF0837EF
:103D5000BD4680BD80B582B000AF78600B46FB7079
:103D60007B6803F11100FB7811220421FFF79BFB14
:103D70007B6803F11100FB7815220421FFF793FB08
:103D800000BF0837BD4680BD80B582B000AF786007
:103D90000B46FB707B6803F11100FB780A220421BB
:103DA000FFF781FB00BF0837BD4680BD80B582B0FC
:103DB00000AF78600B46FB707B6803F11100FB7865
:103DC00003220421FFF76FFB00BF0837BD4680BD0B
:103DD00080B582B000AF78607B6811330422002187
:103DE000184607F03EF900BF0837BD4680BD80B5D4
:103DF00084B002AF78607B68043304220021184647
:103E000007F02FF97B681B7943F04003DAB27B6837
:103E10001A717B6800221A727B68043304220092B4
:103E200000220D21786801F029FE00BF0837BD4649
:103E300080BD80B582B000AF78607868FFF7D7FFAB
:103E40007B68043304220021184607F00AF97868D9
:103E500000F0FCFD7B6801221A7200BF0837BD46E6
:103E600080BD80B584B002AF78607B68181D7B6828
:103E700093F82B30002B14BF01230023DBB283F017
:103E80000103DBB203F00103DBB200220421FFF7E0
:103E90000AFB7B68181D012308220421FFF703FB9E
:103EA0007B6804330422009200220D21786801F01F
:103EB000E5FD00BF0837BD4680BD80B582B000AFCC
:103EC00078607868FFF793FF7B6804330422002151
:103ED000184607F0C6F8786800F0CAFD7B68022231
:103EE0001A7200BF0837BD4680BD80B584B002AFEE
:103EF00078600B46FB707868FFF71FFE7B68181D23
:103F00007B6893F82B30002B14BF01230023DBB216
:103F100083F00103DBB203F00103DBB200220421D2
:103F2000FFF7C1FAFB78002B06D07B68181D012330
:103F300002220421FFF7B7FA7B68181D0123012232
:103F40000421FFF7B0FA7B680433042200920022B8
:103F50000D21786801F092FD7B6893F82C30002BDE
:103F60000DD07B68043304220021184607F079F84D
:103F70007B6801221A727868FFF773FF0BE07B6899
:103F800093F82D30002B03D07B6801221A7202E0D7
:103F90007B6800221A7200BF0837BD4680BD80B51D
:103FA00082B000AF78607868FFF721FF7868FFF78C
:103FB0004DFD7868FFF717FD7868FFF78BFD78688F
:103FC000FFF7AAFD7868FFF763FD00BF0837BD461D
:103FD00080BD80B584B002AF78607868FFF747FD98
:103FE0007868FFF711FD7868FFF785FD7868FFF7BF
:103FF000A4FD7868FFF75DFD786800F01DFE7B6822
:1040000030330222009200221821786801F036FD38
:104010007B6830330222009241F604022E21786838
:1040200001F02CFD00BF0837BD4680BD80B483B0D1
:1040300000AF78600B46FB70FB78002B14BF0123A8
:104040000023DBB283F00103DBB203F00103DAB239
:104050007B6883F82B2000BF0C37BD465DF8047BDE
:10406000704780B582B000AF78600B46FB707B680C
:10407000FA7883F82A207B6803F10D00FB78002B87
:1040800014BF01230023DBB283F00103DBB203F092
:104090000103DBB212220421FFF705FA00BF083743
:1040A000BD4680BDB0B58AB002AFF860C7E9002355
:1040B00007F110031946F86800F0F6FBD7E9040190
:1040C000D7E90023841841EB0305C7E9044507F14C
:1040D000180307F1100292E8030018600433197006
:1040E00000233B767B7E23F00103DBB27B7607F176
:1040F00018030522009200220A21F86801F0BEFC94
:1041000007F1100307F1180292E803001860043366
:104110001970D7E90423104619462037BD46B0BDB3
:1041200080B586B002AF78600B46FB70FB7803F079
:104130000303FB707B68DB7F23F07C03DAB27B68D0
:10414000DA777B68DA7FFB785B01DBB21343DAB2A4
:104150007B68DA77FB78002B08D17B6803F10D00D0
:10416000012316220421FFF79EF907E07B6803F183
:104170000D00002316220421FFF795F9FB78022B8E
:1041800018D17B6803F11500002311220421FFF7E9
:104190008AF97B6803F11500002314220421FFF73C
:1041A00082F97B6803F11500002315220421FFF733
:1041B0007AF917E07B6803F115000123112204212D
:1041C000FFF771F97B6803F1150001231422042124
:1041D000FFF769F97B6803F115000123152204211B
:1041E000FFF761F9FB78022B02D10823FB7307E08C
:1041F000FB78012B02D11023FB7301E04023FB73FA
:1042000007F10F030122009200222121786801F0BA
:1042100035FC7B68FA7883F8262000BF1037BD464E
:1042200080BD80B483B000AF78600B46FB70FB7834
:1042300003F00303FB707B6893F8203023F0030343
:10424000DAB27B6883F820207B6893F82020FB7823
:104250001343DAB27B6883F820207B68DB7D23F090
:104260000C03DAB27B68DA757B68DA7DFB789B0039
:10427000DBB21343DAB27B68DA757B68FA7883F8CD
:10428000252000BF0C37BD465DF8047B704780B425
:1042900083B000AF78600B46FB70FB7803F00F0330
:1042A000FB707B6893F8203023F03C03DAB27B6824
:1042B00083F820207B6893F82020FB789B00DBB2FA
:1042C0001343DAB27B6883F82020FB78012B02D0FD
:1042D000FB78052B04D17B68082283F8242016E0A4
:1042E000FB78092B02D0FB780D2B04D17B681022C0
:1042F00083F824200BE0FB78022B04D17B6820227A
:1043000083F8242003E07B68402283F824207B6824
:10431000FA7883F8272000BF0C37BD465DF8047B90
:10432000704780B483B000AF78600B46FB70FB78B9
:10433000002B01D0032200E000227B6883F82320B9
:104340007B68DB7B23F00303DAB27B68DA737B687C
:10435000DA7B7B6893F823301343DAB27B68DA7335
:1043600000BF0C37BD465DF8047B704780B483B056
:1043700000AF78600B46FB70FB7803F00F03FB7017
:10438000FB781B015AB297F9033013435BB2DAB2E0
:104390007B685A757B68FA7883F8292000BF0C3750
:1043A000BD465DF8047B704780B483B000AF786091
:1043B0000B46FB70FB7803F01F03FB707B68DB7D13
:1043C00003F03F03DAB27B68DA757B68DB7D5AB2B3
:1043D000FB789B015BB213435BB2DAB27B68DA75A0
:1043E0007B6800221A76FB789B08DBB25BB203F095
:1043F00007035AB2FB78DB005BB213435BB2DAB25D
:104400007B681A767B68FA7883F8282000BF0C371F
:10441000BD465DF8047B704780B582B000AF786020
:104420007B681B7A022B4DD07B681B7A012B49D00D
:104430007B681B7A002B45D100217868FFF771FF5C
:1044400000217868FFF70DFE00217868FFF7EEFD88
:1044500000217868FFF7A1FB00217868FFF7AFFB28
:1044600000217868FFF7BDFB01217868FFF70CFC9D
:1044700001217868FFF71AFC01217868FFF76AFCD0
:1044800000217868FFF72CFC00217868FFF77CFC9E
:1044900000217868FFF78AFC01217868FFF7E2FBCA
:1044A0000A49786800F09DFB7B681B68DB68052182
:1044B0007868984701217868FFF7D3FD0449786848
:1044C00000F08FFB00BF0837BD4680BDACEB000895
:1044D000B0EB000880B586B002AFF860B9607A60D2
:1044E000FB6893F82B30002B02D07B6802337B6093
:1044F0007B68B3F5806F29D27B687F2B04D9FB687A
:1045000093F82330002B23D07B680093BB680022F4
:104510000921F86801F0B2FA7B68DAB2FB689A7791
:10452000FB68DB7F23F01F03DAB2FB68DA77FB68F6
:10453000DB7F5AB27B681B0A5BB203F003035BB2FA
:1045400013435BB2DAB2FB68DA7702E000BF00E047
:1045500000BF1037BD4680BD80B586B002AF786021
:104560000023FB607B681B7A022B09D17B68DB7F11
:104570001B027A68927F1343C3F30903FB6013E0C5
:104580007B681B7A012B0FD107F1080304220092EC
:1045900000221021786801F009FA7B7A1B023A7A2E
:1045A0001343C3F30903FB607B6893F82B30002BA4
:1045B00005D0FB68022B02D9FB68023B00E0FB68D8
:1045C00018461037BD4680BD80B586B002AFF86092
:1045D000B9607A607B68002B08D07B680093BB6869
:1045E00000221121F86801F0E1F900E000BF103766
:1045F000BD4680BD80B584B002AF7860396039684F
:104600004FF000024FF00003C1E900233B68052290
:10461000009200221521786801F0C8F9396878689D
:1046200000F004F800BF0837BD4680BD2DE9B04357
:104630008AB000AF78603960786800F0A3FAF0EED5
:10464000407A9FED917A77EE877AF1EE677AB6EE4F
:10465000007A67EE877AC7ED057AD7ED057AF0EE36
:10466000E77A9FED8A7AF4EE477AF1EE10FA00F2DB
:104670000681D7ED057AFDEEE77A17EE903A7B6278
:104680007B6A01333B627B6A002B04DC00237B6284
:1046900000233B6206E03B6A102B03DD11237B62A3
:1046A00011233B620023FB610023BB617B6893F80D
:1046B0002930042B04D07B6893F82930072B57D17D
:1046C0007B6893F82530012B26D107231A463B6AD5
:1046D000934205DA6E4A3B6A13441B785B4203E05F
:1046E0006B4A3B6A13441B78FB61FB695B00FB610F
:1046F00007231A467B6A934205DA654A7B6A1344AC
:104700001B785B4203E0624A7B6A13441B78BB61FF
:10471000BB695B00BB6177E07B6893F82530022BB7
:1047200072D107231A463B6A934205DA594A3B6A1B
:1047300013441B785B4203E0564A3B6A13441B78E0
:10474000FB61FB695B00FB6107231A467B6A9342AE
:1047500005DA504A7B6A13441B785B4203E04D4AFA
:104760007B6A13441B78BB61BB695B00BB614BE098
:104770007B6893F82530012B20D10A231A463B6A27
:10478000934205DA444A3B6A13441B785B4203E0D8
:10479000414A3B6A13441B78FB610A231A467B6A31
:1047A000934205DA3C4A7B6A13441B785B4203E080
:1047B000394A7B6A13441B78BB6126E07B6893F817
:1047C0002530022B21D108231A463B6A934205DA91
:1047D000324A3B6A13441B785B4203E02F4A3B6A30
:1047E00013441B78FB6108231A467B6A934205DA5F
:1047F0002A4A7B6A13441B785B4203E0274A7B6AA0
:1048000013441B78BB6100E000BFBB6907EE903A20
:10481000B8EEE77A7B6A07EE903AF8EEE77AD7EDE2
:10482000056A76EEE76AFA69BB69D31A07EE903A31
:10483000F8EEE77A66EEA77A77EE277AC7ED047A84
:10484000D7ED047A9FED167A67EE877A9FED157A99
:1048500067EE877AFDEEE77A17EE902AD317904637
:104860009946C7E902893B68D3E90001D7E90223E9
:10487000841A61EB03053B68C3E9004500E000BF13
:104880002837BD46BDE8B08300007442FFFF7F7F3C
:10489000DCEB0008F0EB0008B4EB0008C8EB000804
:1048A000B32355436F12833A80B584B002AF78606A
:1048B00039603B680522009200220621786801F0E9
:1048C00075F800BF0837BD4680BD80B582B000AF27
:1048D00078607B681933072205211846FEF720FE11
:1048E000034618460837BD4680BD80B582B000AF8C
:1048F00078607B6819330A2205211846FEF710FEFE
:10490000034618460837BD4680BD80B582B000AF6B
:1049100078607B6893F82B30002B08D07B681933C4
:104920000E2205211846FEF7FBFD034607E07B68D3
:1049300019330D2205211846FEF7F2FD03461846ED
:104940000837BD4680BD80B584B000AF78607B6815
:104950001933122205211846FEF7E2FD0346FB73C8
:104960007B6819330F2205211846FEF7D9FD03464F
:10497000BB737B6819330C2205211846FEF7D0FD66
:1049800003467B737B681933102205211846FEF716
:10499000C7FD03463B737B6819331A22052118466D
:1049A000FEF7BEFD0346FB727B6819331D2205210D
:1049B0001846FEF7B5FD0346BB72FB7B002B0ED1FC
:1049C000BB7B002B0BD17B7B002B08D13B7B002BCF
:1049D00005D1FB7A002B02D1BB7A002B01D0012339
:1049E00000E0002303F00103DBB218461037BD4698
:1049F00080BD80B582B000AF78607B68193311222A
:104A000005211846FEF78CFD034618460837BD46BB
:104A100080BD80B586B002AF78600023BB60002304
:104A20003B7307F1080001230A220521FEF73BFD35
:104A300007F108030522009200220F21786801F097
:104A40001DF800BF1037BD4680BD000080B584B0A2
:104A500000AF7860054BFB60FB6800220F2178688F
:104A600001F066F800BF1037BD4680BD00FF272467
:104A700080B584B000AF7860F823FB60FB6800224B
:104A80000F21786801F054F800BF1037BD4680BD93
:104A900080B586B002AF786007F10C030422009263
:104AA00000221021786800F081FFBB7B1B09DBB27C
:104AB0001A46FB7B1B01134307EE903AF8EE677A28
:104AC000B0EE670A1037BD4680BD000080B588B0E3
:104AD00000AF87ED030AC7ED020A0346FB71FB79BD
:104AE000012B04D1214BFB61214BBB6103E0214B26
:104AF000FB61214BBB61D7ED027A67EEA77A97ED98
:104B0000037AC7EE276AB0EE660A09F0CFFDF0EE31
:104B1000407AB2EE047A27EE877AD7ED077A77EEFD
:104B2000677AC7ED057AD7ED057A9FED147AF4EE32
:104B3000C77AF1EE10FA01D87B6910E0D7ED057A5B
:104B40009FED0F7A37EE877AD7ED067A67EE277AF0
:104B500097ED057A77EE277AC7ED057A7B6907EE40
:104B6000903AB0EE670A2037BD4680BD3D8AE342E9
:104B70006D561540E17AF3426D56953F0000B0C284
:104B80000000B04280B586B000AF786006221221E6
:104B9000786800F049FF034607EE903AF8EE677A2E
:104BA000C7ED057A7868FFF773FF87ED040A4FF0C9
:104BB0009043FB6097ED057AD7ED037A67EE277A8D
:104BC0007B6893F825301846D7ED040AB0EE670AE3
:104BD000FFF77CFFF0EE407AB0EE670A1837BD466B
:104BE00080BD80B582B000AF786039603B681B78CB
:104BF00019467868FFF794FA3B6801331B78194629
:104C00007868FFF70EFB3B6802331B78194678681B
:104C1000FFF73DFB7B6893F8293019467868FFF76A
:104C2000A5FB7B6893F8283019467868FFF7BCFB32
:104C300000BF0837BD4680BD80B598B002AF786030
:104C40007B6893F82530012B08D107F15403022229
:104C500048F670011846FEF78CFC0CE07B6893F870
:104C60002530022B07D107F15403022248F69B019D
:104C70001846FEF77EFC07F150030422B949184696
:104C8000FEF777FC07F14C03022235211846FEF7A8
:104C900070FC7B6893F82630002B07D107F148039E
:104CA000022216211846FEF764FC18E07B6893F890
:104CB0002630012B07D107F14803022206211846AE
:104CC000FEF757FC0BE07B6893F82630022B06D1E9
:104CD00007F14803022201211846FEF74AFC7B68CF
:104CE00093F82530012B07D107F1440302228721D5
:104CF0001846FEF73EFC0BE07B6893F82530022B4C
:104D000006D107F1440302228D211846FEF731FC3B
:104D10007B6893F82730062B09D07B6893F82730FF
:104D20000A2B04D07B6893F82730032B0CD17B68C7
:104D300093F82630002B2AD107F140030222642188
:104D40001846FEF716FC22E07B6893F82730012B0B
:104D500011D07B6893F82630012B04D07B6893F840
:104D60002630022B13D107F14003022220211846DE
:104D7000FEF7FFFB0BE07B6893F82630022B06D191
:104D800007F14003022210211846FEF7F2FB7B6870
:104D900093F82430082B19D17B6893F82530012B28
:104DA00007D107F13C0304226F491846FEF7E1FBE7
:104DB00068E07B6893F82530022B63D107F13C0350
:104DC00004226A491846FEF7D4FB5BE07B6893F83F
:104DD0002430102B19D17B6893F82530012B07D193
:104DE00007F13C03042262491846FEF7C2FB49E082
:104DF0007B6893F82530022B44D107F13C03042251
:104E00005C491846FEF7B5FB3CE07B6893F824301C
:104E1000202B19D17B6893F82530012B07D107F19E
:104E20003C03042254491846FEF7A3FB2AE07B68A2
:104E300093F82530022B25D107F13C0304224F497A
:104E40001846FEF796FB1DE07B6893F82430402B54
:104E500018D17B6893F82530012B07D107F13C036B
:104E6000042247491846FEF784FB0BE07B6893F861
:104E70002530022B06D107F13C0304224149184694
:104E8000FEF777FB7B6893F82730012B07D107F1FA
:104E90003803022210211846FEF76BFB06E007F1EB
:104EA0003803022228211846FEF763FB7B6893F83B
:104EB0002930042B0CD07B6893F82930072B07D0BE
:104EC00007F124030122D8211846FEF752FB06E021
:104ED00007F124030122BC211846FEF74AFB7B6838
:104EE00093F82930012B08D107F12003042245F65D
:104EF00040411846FEF73DFB5AE07B6893F82930A5
:104F0000022B07D107F1200304221F491846FEF7A0
:104F100030FB4DE07B6893F82930032B07D107F174
:104F20002003042219491846FEF723FB40E07B6862
:104F300093F82930042B07D107F1200304221449E8
:104F40001846FEF716FB33E07B6893F82930052BF3
:104F500022D107F1200304220E491846FEF709FB6F
:104F600026E000BF07A902252D001A316B003B3156
:104F700052001A33BE003B339A001A355E013B35AE
:104F80001D011A3796023B37A05C0400C06C080074
:104F9000805C0400E03F1E007B6893F82930072BFB
:104FA00006D107F120030422BE491846FEF7E1FAB4
:104FB0007B6893F82930012B07D107F11C030122EC
:104FC000C9211846FEF7D5FA3FE07B6893F82930EF
:104FD000022B07D107F11C030122C2211846FEF75C
:104FE000C8FA32E07B6893F82930032B07D107F128
:104FF0001C030122C5211846FEF7BBFA25E07B6899
:1050000093F82930042B07D107F11C0301229521C5
:105010001846FEF7AEFA18E07B6893F82930052BA6
:1050200007D107F11C030122C0211846FEF7A1FA9F
:105030000BE07B6893F82930072B06D107F11C039E
:10504000012293211846FEF794FA7B6893F82930E1
:10505000012B0ED107F11803042293491846FEF7DD
:1050600088FA07F1140301221E211846FEF781FA7F
:1050700044E07B6893F82930022B04D07B6893F8D6
:105080002930042B0ED107F1180304228749184652
:10509000FEF76FFA07F11403012226211846FEF7E6
:1050A00068FA2BE07B6893F82930032B0ED107F1C7
:1050B000180304227E491846FEF75BFA07F1140331
:1050C000012256211846FEF754FA17E07B6893F840
:1050D0002930052B04D07B6893F82930072B0DD19C
:1050E00007F11803042273491846FEF742FA07F144
:1050F00014030122A6211846FEF73BFA07F13403F8
:1051000001220D211846FEF734FA7B6893F825300A
:10511000012B08D107F13003022241F20761184642
:10512000FEF727FA0CE07B6893F82530022B07D1B5
:1051300007F13003022240F207611846FEF719FA20
:105140007B6893F82830012B04D07B6893F82830D3
:10515000022B16D17B6893F82630002B08D107F17B
:105160002C03022240F633311846FEF702FA54E1CE
:1051700007F12C03022245F698111846FEF7F9F9BB
:105180004BE17B6893F82830032B04D07B6893F8BD
:105190002830082B16D17B6893F82630002B08D1D5
:1051A00007F12C03022240F63D211846FEF7E1F9F3
:1051B00033E107F12C03022245F2EA111846FEF70B
:1051C000D8F92AE17B6893F82830042B16D17B6844
:1051D00093F82630002B08D107F12C03022240F669
:1051E00051011846FEF7C5F917E107F12C03022219
:1051F00044F28E211846FEF7BCF90EE17B6893F865
:105200002830052B16D17B6893F82630002B08D167
:1052100007F12C03022240F6A3011846FEF7A9F974
:10522000FBE007F12C03022244F21E511846FEF760
:10523000A0F9F2E07B6893F82830062B16D17B6842
:1052400093F82630002B08D107F12C03022240F2FC
:10525000C2511846FEF78DF9DFE007F12C03022258
:1052600042F614611846FEF784F9D6E07B6893F89D
:105270002830072B20D17B6893F82630002B08D1EB
:1052800007F12C0302224FF480511846FEF771F902
:10529000C3E007F12C0302224FF400411846FEF749
:1052A00068F9BAE0E07D1E0007040009080540081F
:1052B000091040081D0400087B6893F82830092B6A
:1052C00016D17B6893F82630002B08D107F12C0308
:1052D000022240F21E511846FEF74BF99DE007F1FD
:1052E0002C03022242F6F4011846FEF742F994E03C
:1052F0007B6893F828300A2B04D07B6893F8283019
:10530000112B16D17B6893F82630002B08D107F1BA
:105310002C03022240F266611846FEF72AF97CE06F
:1053200007F12C03022243F232311846FEF721F92D
:1053300073E07B6893F828300B2B16D17B6893F8C9
:105340002630002B08D107F12C03022240F25C71B9
:105350001846FEF70EF960E007F12C03022243F62F
:10536000E0211846FEF705F957E07B6893F82830EE
:105370000C2B16D17B6893F82630002B08D107F14F
:105380002C03022240F2AE711846FEF7F2F844E018
:1053900007F12C03022243F670511846FEF7E9F894
:1053A0003BE07B6893F82830122B04D07B6893F89D
:1053B0002830132B16D17B6893F82630002B08D1A8
:1053C00007F12C0302224FF4D7611846FEF7D1F8FB
:1053D00023E007F12C03022243F2C2511846FEF7E4
:1053E000C8F81AE07B6893F82830142B15D17B6835
:1053F00093F82630002B08D107F12C03022240F647
:10540000F5011846FEF7B5F807E007F12C03022274
:1054100044F2AE711846FEF7ACF87B6893F854304E
:10542000002B09D07B681B6D194607F12803042265
:105430001846FEF79EF831E17B6893F82930012B7E
:1054400004D07B6893F82930022B38D17B6893F81D
:105450002530012B16D17B6893F82A30002B08D019
:1054600007F1280304224FF01F311846FEF781F898
:1054700013E107F1280304224FF075311846FEF7B7
:1054800078F80AE17B6893F82530022B40F005811B
:105490007B6893F82A30002B08D007F128030422F8
:1054A0004FF01F311846FEF764F8F6E007F12803C5
:1054B00004224FF067311846FEF75BF8EDE07B6899
:1054C00093F82930032B36D17B6893F82530012BD4
:1054D00015D17B6893F82A30002B07D007F12803F9
:1054E000042277491846FEF744F8D7E007F128036D
:1054F00004224FF06F311846FEF73BF8CEE07B6890
:1055000093F82530022B40F0C9807B6893F82A304D
:10551000002B07D007F1280304226A491846FEF73A
:1055200028F8BBE007F1280304224FF08B3118461E
:10553000FEF71FF8B2E07B6893F82930042B36D1D0
:105540007B6893F82530012B15D17B6893F82A30BE
:10555000002B07D007F1280304225B491846FEF709
:1055600008F89BE007F1280304224FF05F3118464A
:10557000FDF7FFFF92E07B6893F82530022B40F0A7
:105580008D807B6893F82A30002B07D007F1280321
:1055900004224E491846FDF7ECFF7FE007F128038F
:1055A00004224FF09A311846FDF7E3FF76E07B685E
:1055B00093F82930052B35D17B6893F82530012BE2
:1055C00015D17B6893F82A30002B07D007F1280308
:1055D00004223F491846FDF7CCFF5FE007F128039E
:1055E00004224FF048311846FDF7C3FF56E07B68B0
:1055F00093F82530022B51D17B6893F82A30002B89
:1056000007D007F12803042232491846FDF7B1FFFD
:1056100044E007F1280304224FF085311846FDF7D6
:10562000A8FF3BE07B6893F82930072B36D17B68D5
:1056300093F82530012B15D17B6893F82A30002B85
:1056400007D007F12803042223491846FDF791FFEC
:1056500024E007F1280304224FF092311846FDF7A9
:1056600088FF1BE07B6893F82530022B16D17B68FE
:1056700093F82A30002B07D007F12803042217499A
:105680001846FDF776FF09E007F1280304224FF0E2
:10569000D1311846FDF76DFF00E000BF07F10C03A4
:1056A0001A461E217868FDF785FF3B7B002B17D13A
:1056B00007F11003012270211846FDF75AFF1AE086
:1056C0006F4F2F0F8B6B4B2B5F3F1F1F9A7A5A3AEE
:1056D0004828080E8565452592725232D1B1715124
:1056E0003B7B03F01F0343F0600107F1100301222D
:1056F0001846FDF73EFF07F15403022200920422F0
:105700002321786800F0BAF907F1500304220092CF
:105710000C222321786800F0B1F907F14C03022232
:10572000009212222321786800F0A8F907F14803BB
:105730000222009202222721786800F09FF907F1E7
:1057400044030222009204222721786800F096F98F
:1057500007F140030222009206222721786800F018
:105760008DF907F13C030422009208222721786872
:1057700000F084F907F13803022200922622272143
:10578000786800F07BF907F134030122009240F6BB
:1057900006022E21786800F071F907F13003022229
:1057A000009241F606022E21786800F067F907F1B1
:1057B0002C030222009242F604022E21786800F0A7
:1057C0005DF907F128030422009200221E21786867
:1057D00000F054F907F12403012200920B22282142
:1057E000786800F04BF907F12003042200920C22A4
:1057F0002821786800F042F907F11C030122009289
:105800000B222A21786800F039F907F114030122EC
:1058100000920B222B21786800F030F907F1180371
:105820000422009207222B21786800F027F907F163
:105830001003012200920E222B21786800F01EF93D
:1058400000BF5837BD4680BD80B584B000AFF8605A
:10585000B9607A603B6000224FF48051134801F038
:10586000E5FA7A68B968124805F0A1FC7B689AB23B
:105870004FF0FF330E490F4802F013F8BA69396848
:105880000B4805F094FCBB699AB24FF0FF3308490E
:10589000084802F006F801224FF48051034801F055
:1058A000C5FA00BF1037BD4680BD00BF00040240EE
:1058B000A8070020D405002080B584B000AFF860B0
:1058C000B9607A603B6000224FF48051134801F0C8
:1058D000ADFA7A68B968124805F069FC7B689AB23B
:1058E0004FF0FF330E490F4801F0DBFFBB699AB25E
:1058F0004FF0FF330A490B4802F00FF9BA69084923
:10590000386805F054FC01224FF48051034801F03F
:105910008DFA00BF1037BD4680BD00BF00040240B5
:10592000A8070020D405002080B582B000AF7860C1
:105930000B46FB70FB78002B06D1084B1822DA616E
:10594000064801F025FF05E0044B0022DA61034818
:1059500001F01EFF00BF0837BD4680BDD405002002
:1059600080B582B000AF786000224FF40071084823
:1059700001F05CFA022000F061F901224FF400719D
:10598000034801F053FA00BF0837BD4680BD00BF91
:10599000000C024080B582B000AF78603960386892
:1059A00000F04CF900BF0837BD4680BD90B589B006
:1059B00002AFF8607A603B600B46FB7201237B61AB
:1059C000FB7A03F03F03DBB23B747B68002B1CD0F7
:1059D0003B7C43F04003DBB23B747B68DBB203F0FB
:1059E0007F03DBB27B747B68DB097B6002237B6116
:1059F0007B68002B09D07B7C63F07F03DBB27B7478
:105A00007B68DBB2BB7403237B61FB681B681C688B
:105A100007F11001BB6A00933B687A69F868A047F8
:105A200000BF1C37BD4690BD80B588B002AFF8609E
:105A30000B467A60FB7207F11603F97A0222009294
:105A40007A68F868FFF7B2FFFB8A18461837BD4638
:105A500080BD80B588B002AFF8600B467A60FB72FB
:105A600007F11403F97A042200927A68F868FFF7C4
:105A70009DFF7B6918461837BD4680BD90B589B03B
:105A800002AFF8607A603B600B46FB7201237B61DA
:105A9000FB7A03F03F03DBB23B743B7C63F07F0394
:105AA000DBB23B747B68002B1CD03B7C43F0400393
:105AB000DBB23B747B68DBB203F07F03DBB27B7449
:105AC0007B68DB097B6002237B617B68002B09D04C
:105AD0007B7C63F07F03DBB27B747B68DBB2BB74DF
