:020000040800F2
:1000000000000220093C0008853600088D360008F3
:1000100099360008A1360008A93600080000000043
:10002000000000000000000000000000B1360008E1
:10003000BF36000800000000CD360008DB3600089F
:10004000593C0008593C0008593C0008593C00083C
:10005000593C0008593C0008593C0008593C00082C
:10006000593C0008593C0008593C0008593C00081C
:10007000593C0008593C0008593C0008593C00080C
:10008000593C0008593C0008593C0008593C0008FC
:10009000593C0008593C0008593C0008593C0008EC
:1000A000593C0008593C0008593C0008593C0008DC
:1000B000593C0008E9360008593C0008593C000842
:1000C000593C0008593C0008593C0008593C0008BC
:1000D000593C0008593C0008593C0008593C0008AC
:1000E000593C0008593C0008593C0008593C00089C
:1000F000593C0008593C0008593C0008593C00088C
:10010000593C0008593C0008593C0008593C00087B
:10011000593C0008593C0008593C0008593C00086B
:10012000593C0008593C0008593C0008593C00085B
:10013000593C0008593C0008593C0008593C00084B
:10014000593C0008593C0008593C0008593C00083B
:10015000593C0008593C0008593C0008593C00082B
:10016000593C0008593C0008593C0008593C00081B
:10017000593C0008593C0008593C000800000000A8
:08018000593C0008593C00083D
:1001900010B5054C237833B9044B13B10448AFF3C1
:1001A00000800123237010BD5002002000000000D9
:1001B000FCF1000808B5034B1BB103490348AFF33A
:1001C000008008BD0000000054020020FCF100087F
:1001D00001F0FF01102A2BDB10F0070F08D010F8F8
:1001E000013B013A8B422DD010F0070F42B3F6D1FC
:1001F000F0B441EA012141EA014122F007047FF015
:1002000000070023F0E80256083C85EA010586EA6B
:10021000010685FA47F5A3FA87F586FA47F6A5FAA7
:1002200087F68EB9EED1F0BC01F0FF0102F00702B3
:1002300032B110F8013B013A83EA010313B1F8D15E
:100240000020704701387047002D06BF354603383F
:10025000073815F0010F07D1013015F4807F02BF78
:10026000013015F4C03F0130F0BC0138704700BFC9
:10027000034613F8012B002AFBD1181A01387047E6
:1002800081F0004102E000BF83F0004330B54FEA47
:1002900041044FEA430594EA050F08BF90EA020FB4
:1002A0001FBF54EA000C55EA020C7FEA645C7FEA47
:1002B000655C00F0E2804FEA5454D4EB5555B8BF6A
:1002C0006D420CDD2C4480EA020281EA030382EADB
:1002D000000083EA010180EA020281EA0303362D6D
:1002E00088BF30BD11F0004F4FEA01314FF4801C40
:1002F0004CEA113102D0404261EB410113F0004F52
:100300004FEA03334CEA133302D0524263EB430308
:1003100094EA050F00F0A780A4F10104D5F1200EA6
:100320000DDB02FA0EFC22FA05F2801841F1000101
:1003300003FA0EF2801843FA05F359410EE0A5F1D5
:1003400020050EF1200E012A03FA0EFC28BF4CF006
:10035000020C43FA05F3C01851EBE37101F00045BC
:1003600007D54FF0000EDCF1000C7EEB00006EEBC9
:100370000101B1F5801F1BD3B1F5001F0CD3490853
:100380005FEA30004FEA3C0C04F101044FEA4452AA
:1003900012F5800F80F09A80BCF1004F08BF5FEA31
:1003A000500C50F1000041EB045141EA050130BD11
:1003B0005FEA4C0C404141EB0101013C28BFB1F523
:1003C000801FE9D291F0000F04BF01460020B1FA6E
:1003D00081F308BF2033A3F10B03B3F120020CDA41
:1003E0000C3208DD02F1140CC2F10C0201FA0CF01F
:1003F00021FA02F10CE002F11402D8BFC2F1200C84
:1004000001FA02F120FA0CFCDCBF41EA0C01904039
:10041000E41AA2BF01EB0451294330BD6FEA040482
:100420001F3C1CDA0C340EDC04F11404C4F120026D
:1004300020FA04F001FA02F340EA030021FA04F37F
:1004400045EA030130BDC4F10C04C4F1200220FAD6
:1004500002F001FA04F340EA0300294630BD21FA14
:1004600004F0294630BD94F0000F83F4801306BFDA
:1004700081F480110134013D4EE77FEA645C18BFCE
:100480007FEA655C29D094EA050F08BF90EA020F65
:1004900005D054EA000C04BF1946104630BD91EA5D
:1004A000030F1EBF0021002030BD5FEA545C05D160
:1004B0004000494128BF41F0004130BD14F580049F
:1004C0003CBF01F5801130BD01F0004545F0FE4113
:1004D00041F470014FF0000030BD7FEA645C1ABF48
:1004E000194610467FEA655C1CBF0B46024650EA7F
:1004F000013406BF52EA033591EA030F41F40021AB
:1005000030BD00BF90F0000F04BF0021704730B530
:100510004FF4806404F132044FF000054FF0000105
:1005200050E700BF90F0000F04BF0021704730B5C6
:100530004FF4806404F1320410F0004548BF40429B
:100540004FF000013EE700BF42004FEAE2014FEAF0
:1005500031014FEA02701FBF12F07F4393F07F4FCB
:1005600081F06051704732F07F4208BF704793F0CE
:100570007F4F04BF41F40021704730B54FF46074E1
:1005800001F0004521F000411CE700BF50EA0102E4
:1005900008BF704730B54FF000050AE050EA01028D
:1005A00008BF704730B511F0004502D5404261EBFD
:1005B00041014FF4806404F132045FEA915C3FF43E
:1005C000D8AE4FF003025FEADC0C18BF03325FEADB
:1005D000DC0C18BF033202EBDC02C2F1200300FA8C
:1005E00003FC20FA02F001FA03FE40EA0E0021FAB1
:1005F00002F11444BDE600BF70B54FF0FF0C4CF49F
:10060000E06C1CEA11541DBF1CEA135594EA0C0F50
:1006100095EA0C0F00F0DEF82C4481EA030621EA8B
:100620004C5123EA4C5350EA013518BF52EA0335C6
:1006300041F4801143F4801338D0A0FB02CE4FF078
:100640000005E1FB02E506F00042E0FB03E54FF0A8
:100650000006E1FB03569CF0000F18BF4EF0010EA0
:10066000A4F1FF04B6F5007F64F5407404D25FEA9C
:100670004E0E6D4146EB060642EAC62141EA55514F
:100680004FEAC52040EA5E504FEACE2EB4F1FD0C91
:1006900088BFBCF5E06F1ED8BEF1004F08BF5FEA0F
:1006A000500E50F1000041EB045170BD06F00046C1
:1006B00046EA010140EA020081EA0301B4EB5C046E
:1006C000C2BFD4EB0C0541EA045170BD41F4801166
:1006D0004FF0000E013C00F3AB8014F1360FDEBF8B
:1006E000002001F0004170BDC4F10004203C35DA67
:1006F0000C341BDC04F11404C4F1200500FA05F3EA
:1007000020FA04F001FA05F240EA020001F000428A
:1007100021F0004110EBD37021FA04F642EB060100
:100720005EEA430E08BF20EAD37070BDC4F10C042A
:10073000C4F1200500FA04F320FA05F001FA04F2EE
:1007400040EA020001F0004110EBD37041F10001DA
:100750005EEA430E08BF20EAD37070BDC4F12005E5
:1007600000FA05F24EEA020E20FA04F301FA05F24D
:1007700043EA020321FA04F001F0004121FA04F2F5
:1007800020EA020000EBD3705EEA430E08BF20EAC5
:10079000D37070BD94F0000F0FD101F000464000FF
:1007A00041EB010111F4801F08BF013CF7D041EA81
:1007B000060195F0000F18BF704703F00046520085
:1007C00043EB030313F4801F08BF013DF7D043EA56
:1007D0000603704794EA0C0F0CEA135518BF95EA0C
:1007E0000C0F0CD050EA410618BF52EA4306D1D193
:1007F00081EA030101F000414FF0000070BD50EAB2
:10080000410606BF1046194652EA430619D094EA3B
:100810000C0F02D150EA013613D195EA0C0F05D125
:1008200052EA03361CBF104619460AD181EA030179
:1008300001F0004141F0FE4141F470014FF0000031
:1008400070BD41F0FE4141F4780170BD70B54FF0CC
:10085000FF0C4CF4E06C1CEA11541DBF1CEA13554C
:1008600094EA0C0F95EA0C0F00F0A7F8A4EB05042E
:1008700081EA030E52EA03354FEA013100F0888025
:100880004FEA03334FF0805545EA131343EA1263EE
:100890004FEA022245EA111545EA10654FEA0026A3
:1008A0000EF000419D4208BF964244F1FD0404F55C
:1008B000407402D25B084FEA3202B61A65EB0305B8
:1008C0005B084FEA32024FF480104FF4002CB6EB75
:1008D000020E75EB030E22BFB61A754640EA0C00F5
:1008E0005B084FEA3202B6EB020E75EB030E22BF35
:1008F000B61A754640EA5C005B084FEA3202B6EB76
:10090000020E75EB030E22BFB61A754640EA9C0034
:100910005B084FEA3202B6EB020E75EB030E22BF04
:10092000B61A754640EADC0055EA060E18D04FEAC2
:10093000051545EA16754FEA06164FEAC30343EA62
:1009400052734FEAC2025FEA1C1CC0D111F4801F2F
:100950000BD141EA00014FF000004FF0004CB6E728
:1009600011F4801F04BF01430020B4F1FD0C88BFC7
:10097000BCF5E06F3FF6AFAEB5EB030C04BFB6EBD2
:10098000020C5FEA500C50F1000041EB045170BDC5
:100990000EF0004E4EEA113114EB5C04C2BFD4EBF2
:1009A0000C0541EA045170BD41F480114FF0000E76
:1009B000013C90E645EA060E8DE60CEA135594EAF2
:1009C0000C0F08BF95EA0C0F3FF43BAF94EA0C0FF5
:1009D0000AD150EA01347FF434AF95EA0C0F7FF46A
:1009E00025AF104619462CE795EA0C0F06D152EABE
:1009F00003353FF4FDAE1046194622E750EA4106A2
:100A000018BF52EA43067FF4C5AE50EA41047FF4B2
:100A10000DAF52EA43057FF4EBAE12E74FF0FF3C17
:100A200006E000BF4FF0010C02E000BF4FF0010CE8
:100A30004DF804CD4FEA410C7FEA6C5C4FEA430C61
:100A400018BF7FEA6C5C1BD001B050EA410C0CBFB0
:100A500052EA430C91EA030F02BF90EA020F002012
:100A6000704710F1000F91EA030F58BF994208BF79
:100A700090422CBFD8176FEAE37040F00100704736
:100A80004FEA410C7FEA6C5C02D150EA013C07D18D
:100A90004FEA430C7FEA6C5CD6D152EA033CD3D0D8
:100AA0005DF8040B704700BF8446104662468C46D2
:100AB0001946634600E000BF01B5FFF7B7FF002805
:100AC00048BF10F1000F01BD4DF808EDFFF7F4FF2E
:100AD0000CBF012000205DF808FB00BF4DF808EDB9
:100AE000FFF7EAFF34BF012000205DF808FB00BFDC
:100AF0004DF808EDFFF7E0FF94BF012000205DF8FE
:100B000008FB00BF4DF808EDFFF7CEFF94BF0120B2
:100B100000205DF808FB00BF4DF808EDFFF7C4FFAB
:100B200034BF012000205DF808FB00BF4FEA410CF4
:100B30007FEA6C5C02D150EA013C0AD14FEA430CD7
:100B40007FEA6C5C02D152EA033C02D14FF0000014
:100B500070474FF0010070474FEA410212F5001252
:100B600015D211D56FF47873B3EB625212D94FEAF4
:100B7000C12343F0004343EA505311F0004F23FADE
:100B800002F018BF404270474FF00000704750EA33
:100B9000013005D111F0004008BF6FF000407047F0
:100BA0004FF00000704700BF4A0011D212F500124A
:100BB00011D20DD56FF47873B3EB62520ED44FEAB5
:100BC000C12343F0004343EA505323FA02F0704735
:100BD0004FF00000704750EA013002D14FF0FF3073
:100BE00070474FF0000070474FEA4102B2F1E04316
:100BF00024BFB3F5001CDCF1FE5C0DD901F0004C04
:100C00004FEAC0024CEA5070B2F1004F40EB830053
:100C100008BF20F00100704711F0804F21D113F17F
:100C20003872BCBF01F00040704741F480114FEAB8
:100C30005252C2F11802C2F1200C10FA0CF320FA41
:100C400002F018BF40F001004FEAC1234FEAD3235E
:100C500003FA0CFC40EA0C0023FA02F34FEA4303C8
:100C6000CCE77FEA625307D150EA01331EBF4FF051
:100C7000FE4040F44000704701F0004040F0FE406C
:100C800040F40000704700BF53B94AB9002908BFBB
:100C900000281CBF4FF0FF314FF0FF3000F0BEB90D
:100CA000ADF1080C6DE904CE00F03CF8DDF804E08D
:100CB000DDE9022304B0704738B500220023044662
:100CC0000D46FFF70BFF28B920462946BDE83840FE
:100CD00000F00AB8204605F1004100F005F8404256
:100CE00061EB410138BD00BFD0B50C4B0022064678
:100CF0000F46FFF781FCFFF757FF0446FFF702FCA2
:100D0000074B0022FFF778FC02460B463046394677
:100D1000FFF7BAFAFFF748FF2146D0BD0000F03DCB
:100D20000000F0412DE9F047089D8E4604468846B4
:100D3000002B4AD18A42174662D9B2FA82F64EB1E6
:100D4000C6F1200301FA06F820FA03F3B74043EA9C
:100D50000808B4404FEA174E1FFA87FCB8FBFEF1B3
:100D6000230C0EFB118843EA084301FB0CF29A4264
:100D700009D9FB1801F1FF3080F0EA809A4240F275
:100D8000E78002393B449A1AA3B2B2FBFEF00EFB95
:100D9000102243EA024300FB0CFC9C4509D9FB18D6
:100DA00000F1FF3280F0D6809C4540F2D3803B4476
:100DB000023840EA0140A3EB0C0300211DB1F340CF
:100DC0000022C5E90032BDE8F0878B4205D90DB19C
:100DD000C5E9000100210846F5E7B3FA83F10029CF
:100DE00046D1734502D3824200F20581841A6EEB2C
:100DF000030201209046002DE5D0C5E90048E2E756
:100E0000002A00F09080B2FA82F6002E40F0A48012
:100E10008A1A030C4FEA174E80B2BCB20121B2FB12
:100E2000FEFC0EFB1C2243EA024304FB0CF29A4236
:100E300007D9FB180CF1FF3802D29A4200F2E08089
:100E4000C4469B1AB3FBFEF20EFB123340EA034387
:100E500002FB04F49C4207D9FB1802F1FF3002D2D6
:100E60009C4200F2CA8002461B1B42EA0C40A5E7E6
:100E7000C1F120068B4022FA06F71F430EFA01F457
:100E800020FA06F32EFA06FE4FEA1749234300FA2A
:100E900001F81FFA87FCBEFBF9F01C0C09FB10EEF1
:100EA00044EA0E4400FB0CFEA64502FA01F209D901
:100EB0003C1900F1FF3A80F09C80A64540F29980F1
:100EC00002383C44A4EB0E041FFA83FEB4FBF9F392
:100ED00009FB13444EEA044403FB0CFCA44508D967
:100EE0003C1903F1FF3E80F08280A4457FD9023B8C
:100EF0003C4443EA0040A4EB0C04A0FB02EC644534
:100F00007346E14662D35FD05DB1B8EB030264EB98
:100F1000090404FA06F622FA01F31E43CC40C5E99F
:100F2000006400214FE7B1FBF2FC010C41EA0E41E5
:100F300080B240EA01423B4638463C46B846BE468F
:100F40002026B1FBF7F1A2EB080241EA0C4166E76B
:100F5000014618E710462CE7C6F120022EFA02F3EC
:100F6000B740B14020FA02F24FEA174E0A43B3FBF2
:100F7000FEF8BCB20EFB1833110C41EA034108FB2A
:100F800004F9B04089454FEA104380B23ED9791840
:100F900008F1FF3C01D289451FD8A1EB0901B1FB43
:100FA000FEF909FB04F80EFB191192B242EA014264
:100FB000424529D2BA1809F1FF31C4D24245C2D202
:100FC000A9F102013A44BEE7F0459DD2BEEB02030F
:100FD0006CEB070C0138E14696E7A7EB0909494499
:100FE000A8F1020CB1FBFEF909FB04F8DBE773463C
:100FF0007FE7504666E70846FDE63B44023A33E7A2
:10100000ACF1020C3B441CE749469CE7A1EB09010B
:10101000C446B1FBFEF909FB04F8C4E7704700BF02
:1010200080B584B000AF3B4600221A605A609A60D7
:10103000DA60214B214A1A601F4B4FF480325A600C
:101040001D4B00229A601C4B00221A611A4B002291
:101050001A76194B002283F82020174B0022DA62FF
:10106000154B174A9A62144B0022DA60124B012288
:10107000DA61114B002283F830200F4B01225A61B4
:101080000D4805F0FDFB0346002B01D002F04EFA9F
:1010900008233B6001237B600023BB603B4619466D
:1010A000054805F031FC0346002B01D002F03EFA62
:1010B00000BF1037BD4680BD6C02002000200140FB
:1010C0000100000F80B58AB000AF786007F114030B
:1010D00000221A605A609A60DA601A617B681B68A5
:1010E000174A934227D100233B61164B5B6C154A8C
:1010F00043F480735364134B5B6C03F480733B6164
:101100003B690023FB600F4B1B6B0E4A43F002034D
:1011100013630C4B1B6B03F00203FB60FB680123A2
:101120007B610323BB610023FB6107F114031946B4
:10113000054805F033FF00BF2837BD4680BD00BF1E
:1011400000200140003802400004024080B58AB00F
:1011500000AF07F1140300221A605A609A60DA6047
:101160001A6100233B61424B1B6B414A43F08003F1
:1011700013633F4B1B6B03F080033B613B69002310
:10118000FB603B4B1B6B3A4A43F001031363384B44
:101190001B6B03F00103FB60FB680023BB60344B57
:1011A0001B6B334A43F002031363314B1B6B03F099
:1011B0000203BB60BB6800237B602D4B1B6B2C4A7A
:1011C00043F0080313632A4B1B6B03F008037B6097
:1011D0007B6801221021274806F07CF801224FF499
:1011E0008051254806F076F801224FF440712348DB
:1011F00006F070F810237B610123BB610023FB61C3
:1012000002233B6207F1140319461A4805F0C6FE93
:101210004FF480537B610123BB610023FB610223F8
:101220003B6207F114031946134805F0B7FE4FF46B
:1012300040737B610123BB610023FB6102233B629E
:1012400007F1140319460D4805F0A8FE4FF440635A
:101250007B614FF48813BB610023FB6107F114032A
:101260001946064805F09AFE00BF2837BD4680BDE6
:10127000003802400000024000040240000C02401E
:1012800080B487B000AF786187ED040AC7ED030A28
:1012900087ED021AC7ED011A7B693A691A607B690A
:1012A000FA685A607B697A681A617B69BA689A60E1
:1012B00000BF1C37BD465DF8047B7047B0B582B0F7
:1012C00000AF786087ED000A7B6893ED017A7B6858
:1012D000D3ED027A77EE277A7B68C3ED017A7B68DB
:1012E000D3ED016A7B6893ED017A7B68D3ED007AD8
:1012F00037EE277AC6EE877A7B68C3ED057A7B687E
:1013000093ED047A7B68D3ED056A7B68D3ED047AAC
:1013100097ED006A76EE677A66EEA77A77EE277A1F
:101320007B68C3ED037A7B685B691846FFF70CF9AD
:1013300002460B464FF000001349FEF7A5FF024698
:101340000B4614461D467B685B681846FFF7FCF8A1
:1013500002460B4620462946FFF74EF902460B4649
:1013600010461946FFF740FC02467B685A607B68CE
:10137000DA687B681A617B68DB6807EE903AB0EE4A
:10138000670A0837BD46B0BD0000F03F80B582B0A7
:1013900000AF7860391D01230122044807F02BFFBC
:1013A0007B6818460837BD4680BD00BF9405002005
:1013B00080B500AF1A4803F05FFE0346002B02D051
:1013C000174803F02DFF164803F066FE0346002B76
:1013D00002D0134803F0F4FE114803F08BFE0346DD
:1013E000002B05D00E4803F009FF0D4802F0A8FEBF
:1013F0000B4803F0D5FE0346002B05D0084803F048
:10140000FDFE074802F09CFE054803F055FE03462A
:10141000002B02D0024803F0F1FE00BF80BD00BFE8
:101420001000002080B5AAB000AF7860396007F1E5
:101430000C0380220021184609F0B5FA0023C7F8F2
:10144000A4300023C7F8A0302AE05A4B9B8A1A46E2
:10145000D7F8A03042FA03F303F00103002B1AD0AF
:10146000D7F8A0301B017A6813449A68D7F8A430E3
:10147000DB00A8333B449C3B1A60D7F8A430DB0068
:10148000A8333B44D7F8A02043F8982CD7F8A430D1
:101490000133C7F8A430D7F8A0300133C7F8A03023
:1014A000D7F8A0300F2BD0DD0023C7F89C3052E0D6
:1014B000D7F89C300133C7F8983041E0D7F89C301A
:1014C000DB00A8333B449C3B93ED007AD7F898307F
:1014D000DB00A8333B449C3BD3ED007AB4EEE77AC3
:1014E000F1EE10FA27D507F10C02D7F89C30DB009B
:1014F000D11807F18C030822184609F0E4FA07F125
:101500000C02D7F89C30DB00D01807F10C02D7F89A
:101510009830DB0013440822194609F0D4FA07F189
:101520000C02D7F89830DB00134407F18C01082235
:10153000184609F0C8FAD7F898300133C7F8983040
:10154000D7F89820D7F8A4309A42B7DBD7F89C3068
:101550000133C7F89C30D7F8A430013BD7F89C2062
:101560009A42A5DB3B6800221A800023C7F894301A
:1015700017E03B681B881AB2D7F89430DB00A83319
:101580003B4453F8983C012101FA03F31BB2134387
:101590001BB29AB23B681A80D7F894300133C7F86F
:1015A0009430D7F89430032BE3DD00BF00BFA83799
:1015B000BD4680BDB802002080B5A8B000AF7860FD
:1015C00007F1080380220021184609F0ECF90023F6
:1015D000C7F89C300023C7F898302AE0484B9B8A14
:1015E0001A46D7F8983042FA03F303F00103002BB0
:1015F0001AD0D7F898301B017A6813449A68D7F844
:101600009C30DB00A0333B44983B1A60D7F89C30F9
:10161000DB00A0333B44D7F8982043F8942CD7F84C
:101620009C300133C7F89C30D7F898300133C7F8A5
:101630009830D7F898300F2BD0DD0023C7F89430BE
:1016400052E0D7F894300133C7F8903041E0D7F832
:101650009430DB00A0333B44983B93ED007AD7F8FD
:101660009030DB00A0333B44983BD3ED007AB4EEDE
:10167000E77AF1EE10FA27D507F10802D7F894308F
:10168000DB00D11807F188030822184609F01BFA7D
:1016900007F10802D7F89430DB00D01807F10802F0
:1016A000D7F89030DB0013440822194609F00BFAF2
:1016B00007F10802D7F89030DB00134407F18801E6
:1016C0000822184609F0FFF9D7F890300133C7F81F
:1016D0009030D7F89020D7F89C309A42B7DBD7F8F3
:1016E00094300133C7F89430D7F89C30013BD7F8D9
:1016F00094209A42A5DBFB681846A037BD4680BD02
:10170000B802002080B493B000AF87ED0B0AC7ED9C
:101710000A0A87ED091AC7ED081A87ED072AC7EDEF
:10172000062A87ED053AC7ED043A87ED034AB8600B
:101730007960D7ED057AB3EE0E7AF4EEC77AF1EE62
:1017400010FA40F12F81D7ED047AB3EE0E7AF4EE61
:10175000C77AF1EE10FA40F12581D7ED037AB3EEA6
:101760000E7AF4EEC77AF1EE10FA40F11B81D7ED54
:10177000057AF5EEC07AF1EE10FA40F31381D7ED59
:10178000047AF5EEC07AF1EE10FA40F30B81D7ED52
:10179000037AF5EEC07AF1EE10FA40F3038197ED8B
:1017A000097AD7ED0B7A77EE677A77EEA77AC7EDED
:1017B000117A97ED087AD7ED0A7A77EE677A77EEA5
:1017C000A77AC7ED107AD7ED057A27EEA77AD7ED7D
:1017D000047A67EEA77A37EE677AD7ED0B7A67EE71
:1017E000A77A37EE677AD7ED097A67EEA77A37EEF0
:1017F000277AD7ED0A7A67EEA77A37EE677AD7EDC0
:10180000087A67EEA77A77EE277AC7ED0F7A97ED19
:10181000077AD7ED0B7A77EE677A77EEA77AC7ED7E
:101820000E7A97ED067AD7ED0A7A77EE677A77EE39
:10183000A77AC7ED0D7AD7ED057A27EEA77AD7ED0F
:10184000037A67EEA77A37EE677AD7ED0B7A67EE01
:10185000A77A37EE677AD7ED077A67EEA77A37EE81
:10186000277AD7ED0A7A67EEA77A37EE677AD7ED4F
:10187000067A67EEA77A77EE277AC7ED0C7A97EDAE
:101880000D7AD7ED117A27EE277AD7ED106AD7EDCA
:101890000E7A66EEA77A77EE677AF5EE407AF1EE89
:1018A00010FA7DD097ED0F7AD7ED0D7A27EE277AD3
:1018B000D7ED0C6AD7ED107A66EEA77A77EE676AF5
:1018C00097ED0D7AD7ED117A27EE277A97ED106A0A
:1018D000D7ED0E7A66EE277A37EE677AC6EE877A0C
:1018E000BB68C3ED007A97ED0F7AD7ED0E7A27EE3D
:1018F000277AD7ED116AD7ED0C7A66EEA77A77EEE4
:10190000676A97ED107AD7ED0E7A27EE277A97ED72
:10191000116AD7ED0D7A66EE277A37EE677AC6EE52
:10192000877A7B68C3ED007ABB68D3ED007AF4EE6A
:10193000677AF1EE10FA31D67B68D3ED007AF4EED7
:10194000677AF1EE10FA29D6BB68D3ED007AF0EE93
:10195000E77A9FED187AF4EE477AF1EE10FAD4BFE9
:1019600001230023DBB283F00103DBB2002B15D18E
:101970007B68D3ED007AF0EEE77A9FED0E7AF4EE15
:10198000477AF1EE10FAD4BF01230023DBB283F0D3
:101990000103DBB2002B01D1012304E0002302E0AC
:1019A000002300E0002318464C37BD465DF8047B59
:1019B000704700BFFFFF7F7F2DE9F04198B000AF77
:1019C000F860B9607A60CD4BDB7D042B40F09A81E2
:1019D00000233B640023FB654FF00003BB654FF021
:1019E00000037B6507F1300300221A605A609A6099
:1019F000DA6007F1200300221A605A609A60DA6008
:101A0000FB68D3F8014023461C46FB68D3F8055019
:101A10002B461D46FB683833D3F8016033461E461B
:101A2000FB683833D3F805C063469C46FB687033C7
:101A3000D3F801E073469E46FB687033D3F8058007
:101A400043469846FB68D3ED087AFB68383393ED3C
:101A5000087AFB687033D3ED086A07F1200207F1BA
:101A6000300311461846B0EE664AF0EE473AB0EE43
:101A7000673A02EE908A02EE10EA01EE90CA01EE99
:101A8000106A00EE905A00EE104AFFF73BFE034644
:101A900087F84030FB68D3F8014023461C46FB68BA
:101AA000D3F805502B461D46FB683833D3F8016048
:101AB00033461E46FB683833D3F805C063469C4660
:101AC000FB68A833D3F801E073469E46FB68A83351
:101AD000D3F8058043469846FB68D3ED087AFB6847
:101AE000383393ED087AFB68A833D3ED086A07F121
:101AF00020031A1D07F13003043311461846B0EED7
:101B0000664AF0EE473AB0EE673A02EE908A02EE8D
:101B100010EA01EE90CA01EE106A00EE905A00EE53
:101B2000104AFFF7EFFD034687F84130FB68A83302
:101B3000D3F8014023461C46FB68A833D3F8055070
:101B40002B461D46FB683833D3F8016033461E46EA
:101B5000FB683833D3F805C063469C46FB68703396
:101B6000D3F801E073469E46FB687033D3F80580D6
:101B700043469846FB68A833D3ED087AFB683833B0
:101B800093ED087AFB687033D3ED086A07F1200300
:101B900003F1080207F13003083311461846B0EE8E
:101BA000664AF0EE473AB0EE673A02EE908A02EEED
:101BB00010EA01EE90CA01EE106A00EE905A00EEB3
:101BC000104AFFF79FFD034687F84230FB68D3F8C1
:101BD000014023461C46FB68D3F805502B461D46A2
:101BE000FB687033D3F8016033461E46FB687033E0
:101BF000D3F805C063469C46FB68A833D3F801E0E0
:101C000073469E46FB68A833D3F805804346984642
:101C1000FB68D3ED087AFB68703393ED087AFB68B4
:101C2000A833D3ED086A07F1200303F10C0207F192
:101C300030030C3311461846B0EE664AF0EE473AD0
:101C4000B0EE673A02EE908A02EE10EA01EE90CA18
:101C500001EE106A00EE905A00EE104AFFF752FDB6
:101C6000034687F8433000233B6526E007F1400236
:101C70003B6D13441B78002B1CD0FB6D0133FB65BF
:101C80003B6D9B0060333B44303BD3ED007A97EDD6
:101C9000167A77EE277AC7ED167A3B6D9B00603394
:101CA0003B44403BD3ED007A97ED157A77EE277AE7
:101CB000C7ED157A3B6D01333B653B6D032BD5DDDD
:101CC000FB6D002B1CDDFB6D07EE903AB8EEE77A5A
:101CD000D7ED166AC6EE877ABB68C3ED007AFB6D56
:101CE00007EE903AB8EEE77AD7ED156AC6EE877A36
:101CF0007B68C3ED007A0123BFE000BFB80200207B
:101D00000023BAE007F1140300221A605A609A60B7
:101D1000002387F847300023FB640023BB641AE0EC
:101D2000BA6C1346DB009B1ADB001A46FB681344AF
:101D3000D3ED087AF5EEC07AF1EE10FA08DDFB6C0F
:101D40005A1CFA649B0060333B44BA6C43F84C2C39
:101D5000BB6C0133BB64BB6C032BE1DD7B691A46B2
:101D60001346DB009B1ADB001A46FB681344D3F8CA
:101D7000014023461C467B691A461346DB009B1A2A
:101D8000DB001A46FB681344D3F805502B461D466A
:101D9000BB691A461346DB009B1ADB001A46FB6838
:101DA0001344D3F8016033461E46BB691A461346F6
:101DB000DB009B1ADB001A46FB681344D3F805C00E
:101DC00063469C46FB691A461346DB009B1ADB0000
:101DD0001A46FB681344D3F801E073469E46FB693C
:101DE0001A461346DB009B1ADB001A46FB681344B5
:101DF000D3F80580434698467B691A461346DB00B4
:101E00009B1ADB001A46FB681344D3ED087ABB69C2
:101E10001A461346DB009B1ADB001A46FB68134484
:101E200093ED087AFB691A461346DB009B1ADB0028
:101E30001A46FB681344D3ED086A7968B868B0EEB7
:101E4000664AF0EE473AB0EE673A02EE908A02EE4A
:101E500010EA01EE90CA01EE106A00EE905A00EE10
:101E6000104AFFF74FFC034687F8473097F8473092
:101E7000002B01D0012300E0002318466037BD4647
:101E8000BDE8F08100000000B0B584B000AF78601C
:101E90007B681B685C4A934240F0AA805B4B1B78CE
:101EA000012B40F29D805A4B93ED007A574B1B78E3
:101EB0005A1E574913465B0013449B000B44D3ED55
:101EC000007A77EE677A17EE900AFEF73DFB02463E
:101ED0000B469FED491B43EC102B0CF08BF855EC97
:101EE000104B4B4B93ED017A484B1B785A1E4849D7
:101EF00013465B0013449B000B440433D3ED007A7C
:101F000077EE677A17EE900AFEF71EFB02460B4645
:101F10009FED391B43EC102B0CF06CF853EC102B9D
:101F200020462946FEF7B2F902460B4643EC172B32
:101F3000B0EE470AF0EE670A0CF0CCF853EC102B29
:101F400010461946FEF750FE0346FB602F4B1B78E8
:101F50005A1E2F4913465B0013449B000B44083361
:101F60001A682B4B9B68D31A1846FEF7CBFA4FF032
:101F70000002284BFEF76AFC02460B461046194643
:101F8000FEF732FE0346BB6097ED037AD7ED027A87
:101F9000C7EE276A16EE900AFEF7D6FA18A3D3E921
:101FA0000023FEF729FB02460B461B49C1E9182313
:101FB000194BD3E918014FF00002184BFEF78EFDC4
:101FC0000346002B04D0144B012283F85D2007E068
:101FD000114B002283F85D200F4B002283F85C2018
:101FE000C02200210A4808F0DEFC084B00221A70CB
:101FF00000BF1037BD46B0BD00000000000000402B
:10200000CDCCCCCCCCCC0C40000400405C040020F7
:102010009C03002000408F40B80200200000524086
:102020002DE9B04FADF5BA6D00AF07F5BA63A3F572
:10203000A07318464FF480731A46002108F0B3FCD1
:1020400007F5BA63A3F5AC731A4600231360536017
:102050009360D3601361536107F5BA63A3F50E7300
:102060001846E0231A46002108F09DFC07F5BA63E4
:10207000A3F5117300221A605A601A8107F5BA633A
:10208000A3F53473184689231A46002108F08BFC07
:1020900007F5BA63A3F55773184689231A4600213A
:1020A00008F081FC07F5BA63A3F57A731846892313
:1020B0001A46002108F077FC07F5BA63A3F27443CF
:1020C000184689231A46002108F06DFC07F5BA630B
:1020D000A3F5A063184689231A46002108F063FC83
:1020E0004FF0000307F5B762136007F5BA63A3F575
:1020F000A863184640231A46002108F054FC07F54F
:10210000BA63A3F5AD63184628231A46002108F0E8
:102110004AFC04F01FFB01F09FF9FFF717F8FEF7E8
:102120007FFF01F009FA01F0FDFC01F0BFFB01F0B7
:1021300059FC01F009FC04F073FB03461946A8485A
:1021400008F0AAFB0023C7F8CC3512E0D7F8CC354D
:102150004FF4966202FB03F107F5BA63A3F5A86397
:10216000D7F8CC2543F82210D7F8CC350133C7F87F
:10217000CC359C4B1B791A46D7F8CC359342E5D326
:102180000023C7F8C8351AE0D7F8C83541F6E84249
:1021900002FB03F3934A127911464FF4966201FB56
:1021A00002F2991807F5BA63A3F5AD63D7F8C8250D
:1021B00043F82210D7F8C8350133C7F8C835894B22
:1021C0005B791A46D7F8C8359342DDD3864A874BE8
:1021D0001B881380864801F007FE854801F028FE21
:1021E0000346002B1FD1824801F0F5FE804802F023
:1021F000B0FA7F4802F0E6FC7D4802F0C4FA7D4B5D
:1022000000225A627C4806F00FFB7C4B00225A6287
:102210007B4806F071FB4FF0804300225A627948F8
:1022200006F002FB0AE004F0FBFA01464FF4FC73EF
:10223000754A764808F030FB00BFFDE7744B5B78C9
:1022400083F00103DBB2002B00F0A580684802F0A8
:10225000CAF9674802F0B6FC654802F0DCF9644848
:1022600001F0BDFF624B9B7E03F06003002B05D1A4
:102270005F4BDB7E03F00203002BF0D05C4B9B7EB8
:1022800003F06003002B00F083804FF080435B6A13
:102290005F4A5360FFF78CF807F1D00389220021D1
:1022A000184608F080FB524802F02CFD0346C7F8A0
:1022B0009435D7F89435002BC0DDD7F8942507F175
:1022C000D00319464A4802F055FD07F5BA63A3F555
:1022D000A0635B7A102BB1D107F5BA63A3F5A063B5
:1022E0001B7B87F8933507F5BA63A3F5A063DB7A08
:1022F00087F892353B4B1B7997F893259A429DD2EC
:10230000384B9B7997F892259A4297D24FF08043A9
:102310005B6A3F4A93603E4B9A683D4B5B689A42CA
:1023200014D997F8932507F5BA63A3F5A86353F872
:1023300022202C4B1B681A44354B9B681A44344BA3
:102340005B684FF08041D31A4B6216E097F89325F3
:1023500007F5BA63A3F5A86353F82220214B1B6845
:102360001A442B4B9B681A44294B5B68D31A4FF0D5
:10237000804203F5C333A03353621A4A97F892356B
:102380005372234B01225A70214B0022DA7055E719
:10239000FFF70EF852E707F592634FF480720021C1
:1023A000184608F000FB1A4B9B6D0133184A9365E1
:1023B000174B00229A75164B00229A8200BF4FF0ED
:1023C00080435B6A002BFAD04FF080435B6A092B95
:1023D000F5D8044B0022DA710D4B00229A7093E17C
:1023E00018F20008000000202003002078F2000806
:1023F00010000020000C00404C05002000040040AC
:1024000004050020BC04002038F200084CF200084B
:10241000B802002000BF4FF080435A6AA94BDB7915
:10242000194607F5BA63A3F5A86353F821309A4219
:10243000F1D34FF41671A44801F06AFFA24801F0ED
:10244000BDFEA14802F0CFF89F4802F0BBFB9E48BA
:1024500002F0E1F89C4801F0C2FE9B4B9B7E03F02A
:102460006003002B05D1984BDB7E03F00203002BA9
:10247000F0D04FF080435B6A944A5360FEF798FFB8
:10248000914B9B7E03F06003002B00F023818E486C
:1024900002F038FC0346C7F89C35D7F89C35002B72
:1024A00040F3238107F5407389220021184608F084
:1024B0007AFAD7F89C2507F540731946824802F04E
:1024C00059FC07F5BA63A3F534735B7A102B40F01F
:1024D0000C8107F5BA63A3F53473DB7A87F89B3573
:1024E000784B9B7997F89B259A4203D2754A97F8C7
:1024F0009B3553724FF080435B6A744A9360734B11
:102500009B7883F00103DBB2002B36D06F4B9A68C7
:102510006E4B5B689A4215D96A4BDB791A4607F510
:10252000BA63A3F5A86353F82220664B1B681A44CC
:10253000664B9B681A44654B5B684FF08041D31A29
:102540004B6217E05F4BDB791A4607F5BA63A3F5D8
:10255000A86353F822205B4B1B681A445B4B9B68B3
:102560001A445A4B5B68D31A4FF0804203F5C333C9
:10257000A0335362554B01229A70524BDB7907F519
:1025800092621B01D01807F54073093307221946E0
:1025900008F099FA4D4B01221A7001224C4B9A70A7
:1025A0004A4B1B7883F00103DBB2002B2ED0454B46
:1025B000DB79194607F5BA63A3F5A0720B01134442
:1025C00001331B7803F00203002B45D03D4BDB7930
:1025D00007F592621B011344043302223C4918465A
:1025E00008F0D1F90346002B36D1384B01221A707E
:1025F000344BDB79194607F5BA63A3F5A0720B01DA
:10260000134406331A78324B9A7025E02D4BDB7950
:10261000194607F5BA63A3F5A0720B011344013301
:102620001B7803F00403002B16D0264BDB7907F54B
:1026300092621B011344043302222549184608F014
:10264000A2F90346002B07D104F097FC1F4B002290
:102650001A701F4B00229A701A4BDB791C461A48DD
:1026600002F013FFF0EE407A07F5BA63A3F5A0720B
:10267000230113440833C3ED007A124BDB7907F5CD
:1026800092621B0108331344043307F5BA62A2F5C2
:102690003472B2F8072092B21A800C4B9B8A1AB29D
:1026A000084BDB79194601238B401BB213431BB245
:1026B0009AB2064B9A82054B9B7D0133DAB2034BEB
:1026C0009A7512E00000002010000020B8020020DF
:1026D00020030020664BDB7966499A1D51F82220C1
:1026E00001326449063341F823204FF08043604AA9
:1026F000D27911465B6A604A42F821305C4BDB7943
:102700000133DAB25A4BDA71594BDA79584B1B79EB
:102710009A42FFF47FAE574B9B78002B03D0554B6A
:102720000022DA700CE0534BDB780133DAB2514B04
:10273000DA70504BDB78042B02D94E4B00225A70D2
:102740004C4B1B78002B3FF479AD4C4B9B781A46D1
:10275000474B5B791946464B5B7A01FB03F39A4280
:10276000FFF66CAD454B9B781A46414B5B79194699
:102770003F4B5B7A013301FB03F39A42BFF65EAD38
:102780003C4B9B7D022B7FF659AD394B00221A72D0
:1027900000F050BE00BF4FF080435A6A344B1B7AA2
:1027A000194607F5BA63A3F5AD6353F821309A4291
:1027B000F1D32F4B1B7A1A462D4B5B7919462C4BC4
:1027C0005B7A01FB03F313442C4A9278934240F066
:1027D0002B8600BF4FF080435A6A254B1B7A19465F
:1027E00007F5BA63A3F5AD6353F8213064339A4219
:1027F000F0D34FF080435B6A1F4A136407F58F6381
:1028000018220021184608F0CEF807F51D7389221A
:102810000021184608F0C7F807F5BA63A3F5AC73B2
:1028200021221A70124B1B7A1A4607F5BA63A3F5D8
:10283000AC73A3F801200F4B9B7D042B09D907F53E
:102840008F63DA1C07F5926311461846FEF7EAFD1E
:1028500007E0084B9A8A07F5BA63A3F5AC73A3F8AF
:1028600003200023C7F8C4350023C7F8C03533E080
:1028700000000020B80200202403002020030020D4
:1028800007F5BA63A3F5AC73B3F803309BB21A46ED
:10289000D7F8C03542FA03F303F00103002B16D03A
:1028A000D7F8C4355B0007F58F621344053307F58D
:1028B0009261D7F8C025120108320A440432128806
:1028C00092B21A80D7F8C4350133C7F8C435D7F8A7
:1028D000C0350133C7F8C035D7F8C0350F2BCFDD71
:1028E00007F5BA63A3F557721378012161F3020368
:1028F000137007F5BA63A3F55772137823F0080332
:10290000137007F5BA63A3F55772137823F0100319
:10291000137007F5BA63A3F55772137823F02003F9
:10292000137007F5BA63A3F55772137843F04003A9
:10293000137007F5BA63A3F557725378022161F358
:102940008303537007F5BA63A3F5577253780121D7
:1029500061F30513537007F5BA63A3F55772537803
:10296000022161F38713537007F5BA63A3F5577318
:10297000002242F03802DA70002242F038021A7166
:1029800007F51D7305330222FF21184608F00BF8E6
:102990002E4B1A8807F5BA63A3F55773A3F80720DF
:1029A00007F5BA63A3F5577307F5BA62A2F5AC72DF
:1029B00003F10904134607CB20606160A2601B7815
:1029C0002373234801F053FE214802F0FBF807F57A
:1029D0001D73162219461E4802F052F900211C48A8
:1029E00001F05DFE1A4801F0FAFB194B5B7E5BB209
:1029F000002BF7DA4FF080435B6A164A5364FEF708
:102A0000D7FC07F58F6310331946114802F0C8F957
:102A100007F5BA63A3F5AC73D3E9042344F25B0171
:102A200012EB010843F1000907F5BA63A3F5AC7393
:102A3000C3E90489002387F8BF354FF080435B6A00
:102A4000044A9364044B0022DA7534E22003002028
:102A50001000002024030020B802002000BF4FF027
:102A600080435A6ADE4B1B7A194607F5BA63A3F511
:102A7000AD6353F8213097F8BF1540F2145000FBB6
:102A800001F10B4403F596639A42E8D34FF4487181
:102A9000D44801F03DFCD34801F090FBD14801F04F
:102AA000A2FDD04802F08EF8CE4801F0B4FDCD482A
:102AB00001F095FBCB4B9B7E03F06003002B05D10F
:102AC000C84BDB7E03F00203002BF0D04FF08042B6
:102AD00097F8BF35526AC44912339B000B445A60C1
:102AE000FEF766FCBF4B9B7E03F06003002B00F0FB
:102AF000D381BC4802F006F90346C7F8B035D7F8D1
:102B0000B035002B40F3C881D7F8B02507F5F47332
:102B10001946B44802F02EF907F5F4730533022282
:102B2000B249184607F02FFF0346002B40F0B4814E
:102B300007F5BA63A3F57A735B7A322B40F0AC8168
:102B400097F8BF2507F566711346DB009B1ADB007B
:102B5000C81807F5F47309331322194607F0B3FFB9
:102B600097F8BF2507F566711346DB009B1ADB005B
:102B700018330B4419469B4802F023F997F8BF25F8
:102B800007F5BA63A3F50E711346DB009B1ADB0051
:102B90000B441833D3E9002397F8BF15944812EB80
:102BA000000A43F1FF3B07F5BA63A3F50E720B462B
:102BB000DB005B1ADB0013441833C3E900AB894820
:102BC00001F00EFE03461846FDF7ACFC4FF0FF3255
:102BD000884BFDF711FD02460B4610461946FEF7DD
:102BE00003F8034607F5B762136097F8BF2507F5AA
:102BF00066711346DB009B1ADB0008330B445A1C3A
:102C000007F5BA63A3F5B4631068186012791A71F6
:102C100097F8BF2507F566711346DB009B1ADB00AA
:102C200008330B449A1D07F5BA63A3F5B563106822
:102C3000186012791A7107F5BA63A3F5B463D3E982
:102C400000236B495118396143F1FF337B6107F56C
:102C5000BA63A3F5B463D7E90412C3E9001207F518
:102C6000BA63A3F5B563D3E9002344F25B015118BD
:102C7000B96043F10003FB6007F5BA63A3F5B563E0
:102C8000D7E90212C3E9001297F8BF2507F5BA6326
:102C9000A3F50E711346DB009B1ADB000B441833BF
:102CA0001A6807F5BA63A3F5AC731B69D31AC7F8A2
:102CB000AC3507F5BA63A3F5B5631A6807F5BA63CF
:102CC000A3F5B4631B68D31AC7F8A835D7F8AC05C9
:102CD000FDF718FCC7E90001D7F8A805FDF712FCBD
:102CE00004460D46B7EE007A07F5B763D3ED007AD8
:102CF00077EE677A17EE900AFDF726FC02460B4640
:102D000020462946FDF778FC02460B46D7E900012C
:102D1000FDF7BAFA02460B46104619464FF000027C
:102D20004FF08043FDF792FD02460B4607F5B46174
:102D3000C1E9002326A3D3E9002307F5B461D1E953
:102D40000001FDF759FC02460B461046194622A326
:102D5000D3E90023FDF77AFD02460B4697F8BF45FD
:102D600010461946FDF740FF014607F5BA63A3F583
:102D70000E722346DB001B1BDB001344203319605B
:102D800097F8BF45174802F00BFBF0EE407A07F5C5
:102D9000BA63A3F50E722346DB001B1BDB00134452
:102DA0002433C3ED007A97F8BF4507F1200207F1FD
:102DB000240319460B4802F0E7FCF0EE407A07F5D1
:102DC000BA63A3F50E722346DB001B1B14E000BFA1
:102DD0000000004A78DEB1410000000030C12D4201
:102DE00000000020100000202403002078F20008DA
:102DF000A5BFFFFFFFFF0FBEDB0013443033C3ED61
:102E0000007A97F8BF2507F5BA63A3F2AC531968A7
:102E100007F5BA63A3F50E701346DB009B1ADB00BF
:102E200003442833196097F8BF2507F5BA63A3F563
:102E3000B663196807F5BA63A3F50E701346DB0095
:102E40009B1ADB0003442C33196097F8BF2507F564
:102E5000BA63A3F50E711346DB009B1ADB000B442B
:102E60002033D3ED007AF5EEC07AF1EE10FA0DD5ED
:102E700097F8BF2507F5BA63A3F50E711346DB007B
:102E80009B1ADB000B442033C74A1A60C74BDB7D1B
:102E90000133DAB2C54BDA754FF0804297F8BF358F
:102EA000526AC34916339B000B445A6097F8BF35EA
:102EB000013387F8BF3597F8BF35032B7FF6CEADCA
:102EC00000BF4FF080435A6ABA4B1B7A194607F588
:102ED000BA63A3F5AD6353F8213003F5C8539A42A2
:102EE000EFD3B24BDB7D022B40F29E8200BF4FF04E
:102EF00080435A6AAF4B1B7A194607F5BA63A3F5AC
:102F0000AD6353F8213003F5CB5304339A42EED32B
:102F100007F5AE7389220021184607F044FD07F536
:102F200063730A220021184607F03DFD4FF08043ED
:102F30005B6A9F4AD36607F592631846FEF73CFB2F
:102F4000C7F8B40507F1180207F11C0107F566730D
:102F50001846FEF731FD0346002B00F0BB8107F554
:102F6000BA63A3F2B453D3ED007AF4EE677AF1EECC
:102F700010FA80F19F8107F5BA63A3F5B763D3ED2B
:102F8000007AF4EE677AF1EE10FA80F1938107F59A
:102F9000BA63A3F2B453D3ED007AF0EEE77A9FED73
:102FA000867AF4EE477AF1EE10FAD4BF01230023BB
:102FB000DBB283F00103DBB2002B40F07B8107F52D
:102FC000BA63A3F5B763D3ED007AF0EEE77A9FED2D
:102FD0007A7AF4EE477AF1EE10FAD4BF0123002397
:102FE000DBB283F00103DBB2002B40F06381734B53
:102FF0001B78184607F5BA63A3F2B4531A687049F0
:1030000003465B0003449B000B441A606B4B1B7828
:10301000184607F5BA63A3F5B7631A68684903460B
:103020005B0003449B000B4404331A60634B1B7822
:103030001C4603F0F5FB0246614923465B0023442E
:103040009B000B4408331A605C4B1B780133DAB2E7
:103050005A4B1A70554B002283F85D20534B93F85E
:103060005D30002B00F00F81504B93F85C3083F003
:103070000103DBB2002B29D007F5BA63A3F2B453E6
:10308000D3ED007A07F15003F0EE671A9FED4D1A69
:10309000DFED4D0AB6EE000A1846FEF7F1F807F527
:1030A000BA63A3F5B763D3ED007A07F13803F0EE06
:1030B000671A9FED441ADFED440AB6EE000A18467F
:1030C000FEF7DEF8394B012283F85C20374BD3E959
:1030D000180133A3D3E90023FDF71EFD0346002B9F
:1030E00074D007F5BA63A3F2B453D3ED007A07F1B5
:1030F0005003B0EE670A1846FEF7E0F8F0EE407AAB
:1031000007F5BA63A3F5117317EE902AC3F80220EE
:1031100007F5BA63A3F5B763D3ED007A07F1380377
:10312000B0EE670A1846FEF7C9F8F0EE407A07F5E8
:10313000BA63A3F5117317EE902AC3F8062007F5BA
:10314000BA63A3F2B453D3ED007A07F15003B0EEA3
:10315000670A1846FEF7B2F8F0EE407A07F5BA6350
:10316000A3F5117317EE902AC3F8022007F5BA638E
:10317000A3F5B763D3ED007A07F13803B0EE670A21
:103180001846FEF79BF8F0EE407A07F5BA63A3F510
:10319000117317EE902AC3F806209BE0AFF300806E
:1031A000CDCCCCCCCCCC0C406F12833AB8020020F2
:1031B0002403002000000020FFFF7F7F5C0400202C
:1031C0009C0300200AD7233CCDCC4C3E07F5BA63C4
:1031D000A3F2B453D3ED007A07F15003B0EE670ABF
:1031E0001846FEF76BF8F0EE407A07F5BA63A3F5E0
:1031F000117317EE902AC3F8022007F5BA63A3F5FE
:10320000B763D3ED007A07F13803B0EE670A1846CA
:10321000FEF754F8F0EE407A07F5BA63A3F51173A0
:1032200017EE902AC3F8062007F5BA63A3F2B45349
:10323000D3ED007A07F15003B0EE670A1846FEF7A7
:103240003DF8F0EE407A07F5BA63A3F5117317EE77
:10325000902AC3F8022007F5BA63A3F5B763D3ED4C
:10326000007A07F13803B0EE670A1846FEF726F831
:10327000F0EE407A07F5BA63A3F5117317EE902AC2
:10328000C3F8062026E007F5BA63A3F2B4531A6820
:1032900007F5BA63A3F51173C3F8022007F5BA6303
:1032A000A3F5B7631A6807F5BA63A3F51173C3F8FA
:1032B00006200FE007F5BA63A3F511734FF0000283
:1032C000C3F8022007F5BA63A3F511734FF00002AB
:1032D000C3F8062007F5BA63A3F5117343221A70E9
:1032E000594B9A7807F5BA63A3F511735A7007F52D
:1032F000BA63A3F274421378012161F302031370DD
:1033000007F5BA63A3F27442137823F0080313702D
:1033100007F5BA63A3F27442137823F01003137015
:1033200007F5BA63A3F27442137823F020031370F5
:1033300007F5BA63A3F27442137843F040031370A5
:1033400007F5BA63A3F274425378022161F3830351
:10335000537007F5BA63A3F274425378012161F305
:103360000513537007F5BA63A3F274425378022130
:1033700061F38713537007F5BA63A3F27443002215
:1033800042F03802DA70002242F038021A7107F572
:103390009262D7F8B4351B010833134404331B88F9
:1033A0009AB207F5BA63A3F27443A3F80520264B3B
:1033B0001A8807F5BA63A3F27443A3F8072007F548
:1033C000BA63A3F2744307F5BA62A2F5117103F16F
:1033D00009020B4603CB106051601B8813811B4808
:1033E00001F045F9194801F0EDFB07F5AE73132222
:1033F0001946164801F044FC0021144801F04FF929
:10340000124800F0ECFE114B5B7E5BB2002BF7DA4A
:103410004FF080435B6A0E4A1367FDF7C9FF4FF018
:1034200080435B6A0A4A53670A4B1B7A0133DAB25C
:10343000084B1A72074B1A7A064B5B799A42FFF4D3
:10344000A9A9FEF7FBBE00BF20030020100000204A
:10345000240300200000002080B594B000AF07F1E5
:10346000200330220021184607F09DFA07F10C03D3
:1034700000221A605A609A60DA601A610023BB6009
:10348000284B1B6C274A43F080531364254B1B6C5D
:1034900003F08053BB60BB6800237B60224B1B683A
:1034A000214A43F4804313601F4B1B6803F480439D
:1034B0007B607B6801233B624FF480337B62022395
:1034C000BB634FF48003FB6304233B64A0237B6452
:1034D0000223BB640423FB6407F12003184603F0B6
:1034E00013FF0346002B01D000F020F80F23FB60F0
:1034F00002233B6100237B614FF4A053BB614FF477
:103500008053FB6107F10C030521184604F074F9A0
:103510000346002B01D000F009F800BF5037BD462C
:1035200080BD00BF003802400070004080B400AF92
:1035300072B600BF00BFFDE780B500AF174B184A59
:103540001A60164B4FF482725A60144B00229A6034
:10355000124B0022DA60114B00221A610F4B00223D
:103560005A610E4B4FF400729A610C4B2022DA61C3
:103570000A4B00221A62094B00225A62074B0022B2
:103580009A62064B0A22DA62044804F055FB0346AD
:10359000002B01D0FFF7CAFF00BF80BD60040020F0
:1035A0000030014080B58AB000AF786007F11403A5
:1035B00000221A605A609A60DA601A617B681B68A0
:1035C000194A93422BD100233B61184B5B6C174A7D
:1035D00043F480535364154B5B6C03F480533B619D
:1035E0003B690023FB60114B1B6B104A43F0010346
:1035F00013630E4B1B6B03F00103FB60FB68E023BE
:103600007B610223BB610023FB6103233B62052333
:103610007B6207F114031946054803F0BFFC00BFA5
:103620002837BD4680BD00BF003001400038024051
:103630000000024080B483B000AF00237B60104BD9
:103640005B6C0F4A43F4804353640D4B5B6C03F493
:1036500080437B607B6800233B60094B1B6C084AFE
:1036600043F080531364064B1B6C03F080533B60A4
:103670003B6800BF0C37BD465DF8047B704700BF58
:103680000038024080B400AF00BFFDE780B500AF56
:1036900003F073FC00BFFDE780B400AF00BFFDE79F
:1036A00080B400AF00BFFDE780B400AF00BFFDE70E
:1036B00080B400AF00BFBD465DF8047B704780B4A6
:1036C00000AF00BFBD465DF8047B704780B400AF1B
:1036D00000BFBD465DF8047B704780B500AF03F0C6
:1036E0008BF800BF80BD000080B500AF024805F038
:1036F00073F900BF80BD00BF0405002080B400AF97
:1037000001231846BD465DF8047B704780B582B042
:1037100000AF7860396007F0A9F9034616221A60F5
:103720004FF0FF3318460837BD4680BD80B582B0E4
:1037300000AF78604FF0FF317868FFF7E7FF00BF18
:10374000FDE780B586B000AFF860B9607A6000230D
:103750007B610AE0AFF300800146BB685A1CBA6087
:10376000CAB21A707B6901337B617A697B689A42BD
:10377000F0DB7B6818461837BD4680BD80B586B043
:1037800000AFF860B9607A6000237B6109E0BB6834
:103790005A1CBA601B781846FDF7F8FD7B690133A7
:1037A0007B617A697B689A42F1DB7B68184618373F
:1037B000BD4680BD80B483B000AF78604FF0FF336A
:1037C00018460C37BD465DF8047B704780B483B063
:1037D00000AF786039603B684FF400525A600023B4
:1037E00018460C37BD465DF8047B704780B483B043
:1037F00000AF7860012318460C37BD465DF8047BA6
:10380000704780B485B000AFF860B9607A6000237B
:1038100018461437BD465DF8047B704780B586B006
:1038200000AF7860144A154BD31A7B617B693B610A
:10383000134B1B68002B02D1114B124A1A60104B1C
:103840001A687B6813443A699A4207D207F00EF966
:1038500003460C221A604FF0FF3309E0084B1B6847
:10386000FB60074B1A687B681344054A1360FB68CA
:1038700018461837BD4680BD000002200004000035
:10388000B8040020A807002080B400AF064BD3F88E
:103890008830054A43F47003C2F8883000BFBD4643
:1038A0005DF8047B704700BF00ED00E080B586B096
:1038B00000AF07F1080300221A605A609A60DA60CC
:1038C0003B4600221A605A601D4B4FF080421A603E
:1038D0001B4B4F225A601A4B00229A60184B194A10
:1038E000DA60174B00221A61154B00229A611448C6
:1038F00004F04AFF0346002B01D0FFF717FE4FF4F8
:103900008053BB6007F1080319460D4805F06CF9B8
:103910000346002B01D0FFF709FE00233B60002384
:103920007B603B461946064805F088FB0346002BA2
:1039300001D0FFF7FBFD00BF1837BD4680BD00BFBB
:10394000BC0400209F86010080B586B000AF07F15F
:10395000080300221A605A609A60DA603B4600222F
:103960001A605A601D4B1E4A1A601C4B41F63F728A
:103970005A601A4B00229A60184B42F20F72DA60BA
:10398000164B00221A61154B00229A61134804F06D
:10399000FBFE0346002B01D0FFF7C8FD4FF4805318
:1039A000BB6007F1080319460C4805F01DF90346F2
:1039B000002B01D0FFF7BAFD00233B6000237B60A2
:1039C0003B461946054805F039FB0346002B01D05C
:1039D000FFF7ACFD00BF1837BD4680BD04050020D1
:1039E0000004004080B586B000AF07F10803002254
:1039F0001A605A609A60DA603B4600221A605A6088
:103A00001D4B1E4A1A601C4B4F225A601A4B002253
:103A10009A60194B4FF0FF32DA60174B00221A619F
:103A2000154B00229A61144804F0AEFE0346002BA9
:103A300001D0FFF77BFD4FF48053BB6007F1080313
:103A400019460D4805F0D0F80346002B01D0FFF7CA
:103A50006DFD00233B6000237B603B461946064812
:103A600005F0ECFA0346002B01D0FFF75FFD00BF25
:103A70001837BD4680BD00BF4C050020000C00403B
:103A800080B586B000AF78607B681B68B3F1804F6B
:103A90000ED100237B61204B1B6C1F4A43F00103B6
:103AA00013641D4B1B6C03F001037B617B692EE0EB
:103AB0007B681B68194A934216D100233B61164B61
:103AC0001B6C154A43F002031364134B1B6C03F089
:103AD00002033B613B69002200211D2003F023FA11
:103AE0001D2003F03CFA12E07B681B680C4A9342ED
:103AF0000DD10023FB60084B1B6C074A43F0080301
:103B00001364054B1B6C03F00803FB60FB6800BFEC
:103B10001837BD4680BD00BF003802400004004099
:103B2000000C004080B500AF104B114A1A600F4BDB
:103B3000104A5A600D4B00229A600C4B0022DA604A
:103B40000A4B00221A61094B0C225A61074B0022D2
:103B50009A61064B0022DA61044805F0FFFA034639
:103B6000002B01D0FFF7E2FC00BF80BD94050020D0
:103B70000010014080841E0080B58AB000AF7860DC
:103B800007F1140300221A605A609A60DA601A6121
:103B90007B681B68194A93422BD100233B61184B69
:103BA0005B6C174A43F010035364154B5B6C03F0D6
:103BB00010033B613B690023FB60114B1B6B104AF8
:103BC00043F0020313630E4B1B6B03F00203FB6015
:103BD000FB68C0237B610223BB610023FB610323DD
:103BE0003B6207237B6207F114031946054803F083
:103BF000D5F900BF2837BD4680BD00BF0010014089
:103C00000038024000040240DFF834D00D480E496D
:103C10000E4A002302E0D458C4500433C4188C4226
:103C2000F9D30B4A0B4C002301E013600432A2428B
:103C3000FBD3FFF729FE06F01FFFFEF7F1F97047EF
:103C400000000220000000205002002068F7000859
:103C500050020020A8070020FEE780B489B000AF22
:103C6000F860B9607A60FB707B68DB08FB61FA6919
:103C7000BB689A4228D2FA68FB691344BB617B682F
:103C800003F007037B61FB78002B0DD0BB691B7829
:103C90005AB201217B6901FA03F35BB213435BB2B1
:103CA000DAB2BB691A7010E0BB691B785AB2012105
:103CB0007B6901FA03F35BB2DB435BB213405BB297
:103CC000DAB2BB691A7000E000BF2437BD465DF868
:103CD000047B704780B489B000AFF860B9607A6047
:103CE0007B68DB08FB61FA69BB689A4201D3002359
:103CF00013E0FA68FB6913441B78FB767B6803F0DA
:103D000007037B61FA7E7B6942FA03F303F0010348
:103D1000002B14BF01230023DBB218462437BD4615
:103D20005DF8047B704780B487B000AFF860B9607D
:103D30007A6000237B610CE07B69DB00BA6842FAA1
:103D400003F1FA687B691344CAB21A707B690133C4
:103D50007B617A697B689A42EED300BF00BF1C3753
:103D6000BD465DF8047B704780B588B002AFF8604F
:103D70000B467A607B817B89DBB23B757B891B0AB2
:103D80009BB2DBB27B7507F114030222009204227E
:103D90002D21F86802F070FC032306222D21F8681B
:103DA00002F0ADFC012306222D21F86802F0A7FCE9
:103DB000042300937B680A222D21F86802F0F4FBAB
:103DC000002306222D21F86802F099FC00BF183765
:103DD000BD4680BD80B483B000AF786000BF0C37B3
:103DE000BD465DF8047B704780B483B000AF786057
:103DF0007B680D4A1A607B680C4A9A637B680B4AA1
:103E0000DA637B68094A1A647B68084A5A647B68EB
:103E1000064A9A647B68054ADA6400BF0C37BD46DF
:103E20005DF8047B704700BF6C000020D53D0008A2
:103E300080B586B002AF78600021786800F01CF988
:103E40007B681B68DB680521786898477B681B687E
:103E50001B69786898477B681B68DB680521786870
:103E60009847786800F0A9F8F860FB68274A934201
:103E700001D0012345E07B6809330422382118462C
:103E800006F091FD7B680933042200920022032191
:103E9000786802F0F1FB7B680D330422002118469C
:103EA00006F081FD0021786800F087FA012178682A
:103EB00000F0A0FA786800F081F9786800F062FB01
:103EC000786800F0D0F90121786800F0D5F87B68B7
:103ED0001B68DB68052178689847786800F018F857
:103EE0007B681B68DB680521786898470221786841
:103EF00000F0C2F87B681B68DB680521786898478A
:103F0000002318461037BD4680BD00BF3001CADE11
:103F100080B586B002AF786007F10C03042200215F
:103F2000184606F040FD07F108030222002118465A
:103F300006F039FD07F10C0304220092002236211D
:103F4000786802F031FB07F1080302220092062292
:103F50002D21786802F028FB01233B7303237B7338
:103F600000233B7280237B7207F10C030422009232
:103F700000223621786802F07FFB07F10803022255
:103F8000009206222D21786802F076FB7B681B6880
:103F9000DB6805217868984700233B7302237B7315
:103FA00007F10C030422009200223621786802F007
:103FB00063FB00BF1037BD4680BD80B582B000AF47
:103FC000786000220021786802F041FB0346184621
:103FD0000837BD4680BD80B584B000AF7860002250
:103FE0002621786802F033FBF860FB6823F47F53E6
:103FF000FB60FB6843F4AA53FB60FB6800222621A8
:10400000786802F093FB0023FB6000222621786889
:1040100002F01DFBF86000223621786802F017FBE1
:10402000F860FB6843F40403FB60FB680022362160
:10403000786802F07BFB4FF48873FB60FB682822F2
:104040003621786802F072FBFB6843F47023FB6052
:10405000FB6828223621786802F068FBFB6823F4AD
:104060007023FB60FB6828223621786802F05EFB33
:1040700000BF1037BD4680BD80B586B002AF786006
:104080000B46FB7007F10C0304220021184606F0D2
:104090008AFC07F10C030422009200223621786882
:1040A00002F082FAFB78002B0DD17B681B689B68BD
:1040B00000217868984700233B737B7B23F0010342
:1040C000DBB27B7326E0FB78012B10D17B681B6889
:1040D0009B680021786898473B7B23F00303DBB2A1
:1040E0003B733B7B43F00103DBB23B7312E0FB7895
:1040F000022B0FD17B681B689B6801217868984769
:104100003B7B23F00303DBB23B733B7B43F00203B7
:10411000DBB23B7307F10C0301220092002236212F
:10412000786802F0A9FA07F10C0304220092002239
:104130003621786802F0A0FA00BF1037BD4680BD76
:1041400080B586B002AF786007F10C0304220092BC
:1041500000223621786802F027FAFB7B23F0100357
:10416000DBB2FB7307F10C0304220092002236211C
:10417000786802F081FAFB7B43F01003DBB2FB733B
:1041800007F10C030422009200223621786802F025
:1041900073FA00BF1037BD4680BD80B584B002AF52
:1041A00078607B680D330422009200220421786835
:1041B00002F0FAF900BF0837BD4680BD80B584B073
:1041C00002AF78607B680D33042200920022042144
:1041D000786802F051FA00BF0837BD4680BD80B54F
:1041E00084B002AF78607B68193305220092002208
:1041F0000F21786802F0D8F900BF0837BD4680BDAE
:1042000080B584B002AF78607B68093304220092E5
:1042100000220321786802F0C7F900BF0837BD46C5
:1042200080BD80B584B002AF78607B68093304221A
:10423000009200220321786802F01EFA00BF0837BE
:10424000BD4680BD80B584B002AF78607B68113315
:104250000422009200220E21786802F0A5F900BF26
:104260000837BD4680BD80B584B002AF78607B68FA
:1042700011330422009200220E21786802F0FCF92A
:1042800000BF0837BD4680BD80B584B002AF7860FE
:104290007B6815330422009200221F21786802F007
:1042A00083F900BF0837BD4680BD80B584B002AF3A
:1042B00078607B6815330422009200221F21786801
:1042C00002F0DAF900BF0837BD4680BD80B584B082
:1042D00002AF78607B681E3305220092002208211D
:1042E000786802F061F900BF0837BD4680BD80B52F
:1042F00084B002AF78607B681E33052200920022F2
:104300000821786802F0B8F900BF0837BD4680BDC3
:1043100080B584B002AF78600B467B80BB1C022264
:10432000009200220C21786802F0A6F97B6803F164
:104330000D007B88002B14BF01230023DBB21C225D
:104340000421FFF78AFC00BF0837BD4680BD80B559
:1043500082B000AF78600B46FB707B6803F10D0004
:10436000FB7800220421FFF778FC00BF0837BD4628
:1043700080BD80B582B000AF78600B46FB707B6873
:1043800003F10D00FB7803220421FFF766FC00BF58
:104390000837BD4680BD80B582B000AF78600B465F
:1043A000FB707B6803F10D00FB7806220421FFF708
:1043B00054FC00BF0837BD4680BD80B582B000AF59
:1043C00078600B46FB707B6803F10D00FB78002BD7
:1043D00014BF01230023DBB283F00103DBB203F03F
:1043E0000103DBB20C220421FFF737FC00BF0837C2
:1043F000BD4680BD80B582B000AF78600B46FB70D3
:104400007B6803F10D00FB7809220421FFF725FCEE
:1044100000BF0837BD4680BD80B582B000AF786070
:104420000B46FB707B6803F10D00FB781D22042115
:10443000FFF713FC00BF0837BD4680BD80B582B0D2
:1044400000AF78600B46FB707B6803F11100FB78CE
:1044500007220421FFF701FC00BF0837BD4680BDDD
:1044600080B582B000AF78600B46FB707B6803F1CB
:104470001100FB780D220421FFF7EFFB7B6803F1AD
:104480001100FB780E220421FFF7E7FB00BF08377D
:10449000BD4680BD80B582B000AF78600B46FB7032
:1044A0007B6803F11100FB7812220521FFF7D5FB91
:1044B0007B6803F11100FB780F220521FFF7CDFB8C
:1044C0007B6803F11100FB780C220521FFF7C5FB87
:1044D0007B6803F11100FB7810220521FFF7BDFB7B
:1044E0007B6803F11100FB781A220421FFF7B5FB6A
:1044F0007B6803F11100FB781D220421FFF7ADFB5F
:1045000000BF0837BD4680BD80B582B000AF78607F
:104510000B46FB707B6803F11100FB78112204212C
:10452000FFF79BFB7B6803F11100FB781522042148
:10453000FFF793FB00BF0837BD4680BD80B582B052
:1045400000AF78600B46FB707B6803F11100FB78CD
:104550000A220421FFF781FB00BF0837BD4680BD5A
:1045600080B582B000AF78600B46FB707B6803F1CA
:104570001100FB7803220421FFF76FFB00BF08370F
:10458000BD4680BD80B582B000AF78607B681133D6
:1045900004220021184606F006FA00BF0837BD467F
:1045A00080BD80B584B002AF78607B68043304229C
:1045B0000021184606F0F7F97B681B7943F04003A9
:1045C000DAB27B681A717B6800221A727B68043346
:1045D0000422009200220D21786802F04DF800BFFD
:1045E0000837BD4680BD80B582B000AF786078687E
:1045F000FFF7D7FF7B68043304220021184606F03A
:10460000D2F9786800F0FAFD7B6801221A7200BFC7
:104610000837BD4680BD80B584B002AF78607B6846
:10462000181D7B6893F82B30002B14BF0123002347
:10463000DBB283F00103DBB203F00103DBB2002243
:104640000421FFF70AFB7B68181D012308220421BF
:10465000FFF703FB7B6804330422009200220D2144
:10466000786802F009F800BF0837BD4680BD80B504
:1046700082B000AF78607868FFF793FF7B680433FF
:1046800004220021184606F08EF9786800F0C8FD73
:104690007B6802221A7200BF0837BD4680BD80B514
:1046A00084B002AF78600B46FB707868FFF71FFE9E
:1046B0007B68181D7B6893F82B30002B14BF0123F7
:1046C0000023DBB283F00103DBB203F00103DBB2B2
:1046D00000220421FFF7C1FAFB78002B06D07B688B
:1046E000181D012302220421FFF7B7FA7B68181D69
:1046F000012301220421FFF7B0FA7B68043304226E
:10470000009200220D21786801F0B6FF7B6893F8D3
:104710002C30002B0DD07B68043304220021184676
:1047200006F041F97B6801221A727868FFF773FF7F
:104730000BE07B6893F82D30002B03D07B680122BF
:104740001A7202E07B6800221A7200BF0837BD4669
:1047500080BD80B582B000AF78607868FFF721FF38
:104760007868FFF74DFD7868FFF717FD7868FFF769
:104770008BFD7868FFF7AAFD7868FFF763FD00BF3F
:104780000837BD4680BD80B584B002AF78607868D8
:10479000FFF747FD7868FFF711FD7868FFF785FDA3
:1047A0007868FFF7A4FD7868FFF75DFD786801F091
:1047B00045F87B6830330222009200221821786885
:1047C00001F05AFF7B6830330222009241F6040266
:1047D0002E21786801F050FF00BF0837BD4680BD2C
:1047E00080B588B002AF786000237B6107F10C03CD
:1047F0000322009228222721786801F0D5FE0223A7
:104800003B610BE07B691B0207F10C013A690A442A
:10481000127813447B613B69013B3B613B69002B90
:10482000F0DA7B6903F48013002B06D07B696FEA12
:1048300003336FEA13337B6103E07B69C3F3140333
:104840007B617B6918461837BD4680BD80B483B054
:1048500000AF78600B46FB70FB78002B14BF012380
:104860000023DBB283F00103DBB203F00103DAB211
:104870007B6883F82B2000BF0C37BD465DF8047BB6
:10488000704780B582B000AF78600B46FB707B68E4
:10489000FA7883F82A207B6803F10D00FB78002B5F
:1048A00014BF01230023DBB283F00103DBB203F06A
:1048B0000103DBB212220421FFF7CFF900BF083752
:1048C000BD4680BD80B586B002AF78600B46FB70F8
:1048D000FB7803F00303FB707B68DB7F23F07C0332
:1048E000DAB27B68DA777B68DA7FFB785B01DBB270
:1048F0001343DAB27B68DA77FB78002B08D17B6848
:1049000003F10D00012316220421FFF7A6F907E0A9
:104910007B6803F10D00002316220421FFF79DF9A7
:10492000FB78022B18D17B6803F1150000231122BC
:104930000421FFF792F97B6803F11500002314228C
:104940000421FFF78AF97B6803F115000023152283
:104950000421FFF782F917E07B6803F115000123BA
:1049600011220421FFF779F97B6803F11500012377
:1049700014220421FFF771F97B6803F1150001236C
:1049800015220421FFF769F9FB78022B02D10823D5
:10499000FB7307E0FB78012B02D11023FB7301E0CE
:1049A0004023FB7307F10F03012200920022212113
:1049B000786801F061FE7B68FA7883F8262000BFF2
:1049C0001037BD4680BD80B483B000AF78600B4621
:1049D000FB70FB7803F00303FB707B6893F82030D7
:1049E00023F00303DAB27B6883F820207B6893F816
:1049F0002020FB781343DAB27B6883F820207B68A1
:104A0000DB7D23F00C03DAB27B68DA757B68DA7D34
:104A1000FB789B00DBB21343DAB27B68DA757B6804
:104A2000FA7883F8252000BF0C37BD465DF8047B7B
:104A3000704780B483B000AF78600B46FB70FB78A2
:104A400003F00F03FB707B6893F8203023F03C03E6
:104A5000DAB27B6883F820207B6893F82020FB780B
:104A60009B00DBB21343DAB27B6883F82020FB782B
:104A7000012B02D0FB78052B04D17B68082283F838
:104A8000242016E0FB78092B02D0FB780D2B04D1F3
:104A90007B68102283F824200BE0FB78022B04D1E2
:104AA0007B68202283F8242003E07B68402283F87F
:104AB00024207B68FA7883F8272000BF0C37BD4696
:104AC0005DF8047B704780B483B000AF78600B461C
:104AD000FB70FB78002B01D0032200E000227B68F2
:104AE00083F823207B68DB7B23F00303DAB27B6847
:104AF000DA737B68DA7B7B6893F823301343DAB28E
:104B00007B68DA7300BF0C37BD465DF8047B7047E5
:104B100080B483B000AF78600B46FB70FB7803F085
:104B20000F03FB7097F903301B015AB297F903305A
:104B300013435BB2DAB27B685A757B68FA7883F804
:104B4000292000BF0C37BD465DF8047B704780B458
:104B500083B000AF78600B46FB70FB7803F01F0357
:104B6000FB707B68DB7D03F03F03DAB27B68DA75AC
:104B70007B68DB7D5AB297F903309B015BB213432C
:104B80005BB2DAB27B68DA757B6800221A76FB7852
:104B90009B08DBB25BB203F007035AB297F903300C
:104BA000DB005BB213435BB2DAB27B681A767B68D8
:104BB000FA7883F8282000BF0C37BD465DF8047BE7
:104BC0007047000080B582B000AF78607B681B7AC8
:104BD000022B4DD07B681B7A012B49D07B681B7A56
:104BE000002B45D100217868FFF76DFF0021786820
:104BF000FFF747FE00217868FFF728FE002178685C
:104C0000FFF7A5FB00217868FFF7B3FB0021786868
:104C1000FFF7C1FB01217868FFF710FC01217868DC
:104C2000FFF71EFC01217868FFF76EFC0021786811
:104C3000FFF730FC00217868FFF780FC00217868DE
:104C4000FFF78EFC01217868FFF7E6FB0A497868D8
:104C500000F04AFC7B681B68DB6805217868984790
:104C600001217868FFF70DFE0449786800F03CFCEC
:104C700000BF0837BD4680BD94F2000898F20008D6
:104C800080B586B002AFF860B9607A60FB6893F8CF
:104C90002B30002B02D07B6802337B607B68B3F53E
:104CA000806F29D27B687F2B04D9FB6893F823306F
:104CB000002B23D07B680093BB6800220921F86891
:104CC00001F0DAFC7B68DAB2FB689A77FB68DB7F7D
:104CD00023F01F03DAB2FB68DA77FB68DB7F5AB296
:104CE0007B681B0A5BB203F003035BB213435BB246
:104CF000DAB2FB68DA7702E000BF00E000BF1037ED
:104D0000BD4680BD80B586B002AF78600023FB60F1
:104D10007B681B7A022B09D17B68DB7F1B027A68D8
:104D2000927F1343C3F30903FB6013E07B681B7A94
:104D3000012B0FD107F10803042200920022102159
:104D4000786801F031FC7B7A1B023A7A1343C3F393
:104D50000903FB607B6893F82B30002B05D0FB68C0
:104D6000022B02D9FB68023B00E0FB6818461037B3
:104D7000BD4680BD80B586B002AFF860B9607A608C
:104D80007B68002B08D07B680093BB680022112150
:104D9000F86801F009FC00E000BF1037BD4680BD97
:104DA00080B584B002AF786039603B68052200921C
:104DB00000221721786801F0F7FB00BF0837BD46D5
:104DC00080BD80B584B002AF7860396039684FF03B
:104DD00000024FF00003C1E900233B680522009266
:104DE00000221521786801F0DFFB3968786800F04F
:104DF00005F800BF0837BD4680BD00002DE9B0436F
:104E00008AB000AF78603960786800F03EFBF0EE61
:104E1000407A9FED917A77EE877AF1EE677AB6EE77
:104E2000007A67EE877AC7ED057AD7ED057AF0EE5E
:104E3000E77A9FED8A7AF4EE477AF1EE10FA00F203
:104E40000681D7ED057AFDEEE77A17EE903A7B62A0
:104E50007B6A01333B627B6A002B04DC00237B62AC
:104E600000233B6206E03B6A102B03DD11237B62CB
:104E700011233B620023FB610023BB617B6893F835
:104E80002930042B04D07B6893F82930072B57D1A5
:104E90007B6893F82530012B26D107231A463B6AFD
:104EA000934205DA6E4A3B6A13441B785B4203E087
:104EB0006B4A3B6A13441B78FB61FB695B00FB6137
:104EC00007231A467B6A934205DA654A7B6A1344D4
:104ED0001B785B4203E0624A7B6A13441B78BB6128
:104EE000BB695B00BB6177E07B6893F82530022BE0
:104EF00072D107231A463B6A934205DA594A3B6A44
:104F000013441B785B4203E0564A3B6A13441B7808
:104F1000FB61FB695B00FB6107231A467B6A9342D6
:104F200005DA504A7B6A13441B785B4203E04D4A22
:104F30007B6A13441B78BB61BB695B00BB614BE0C0
:104F40007B6893F82530012B20D10A231A463B6A4F
:104F5000934205DA444A3B6A13441B785B4203E000
:104F6000414A3B6A13441B78FB610A231A467B6A59
:104F7000934205DA3C4A7B6A13441B785B4203E0A8
:104F8000394A7B6A13441B78BB6126E07B6893F83F
:104F90002530022B21D108231A463B6A934205DAB9
:104FA000324A3B6A13441B785B4203E02F4A3B6A58
:104FB00013441B78FB6108231A467B6A934205DA87
:104FC0002A4A7B6A13441B785B4203E0274A7B6AC8
:104FD00013441B78BB6100E000BFBB6907EE903A49
:104FE000B8EEE77A7B6A07EE903AF8EEE77AD7ED0B
:104FF000056A76EEE76AFA69BB69D31A07EE903A5A
:10500000F8EEE77A66EEA77A77EE277AC7ED047AAC
:10501000D7ED047A9FED167A67EE877A9FED157AC1
:1050200067EE877AFDEEE77A17EE902AD31790465F
:105030009946C7E902893B68D3E90001D7E9022311
:10504000841A61EB03053B68C3E9004500E000BF3B
:105050002837BD46BDE8B08300007442FFFF7F7F64
:10506000C4F20008D8F200089CF20008B0F2000870
:10507000B32355436F12833A80B582B000AF786096
:105080007B681933072205211846FEF723FE0346E5
:1050900018460837BD4680BD80B582B000AF786045
:1050A0007B6819330A2205211846FEF713FE0346D2
:1050B00018460837BD4680BD80B582B000AF786025
:1050C0007B6893F82B30002B08D07B6819330E22B5
:1050D00005211846FEF7FEFD034607E07B681933FD
:1050E0000D2205211846FEF7F5FD03461846083740
:1050F000BD4680BD80B584B000AF78607B68193351
:10510000122205211846FEF7E5FD0346FB737B6876
:1051100019330F2205211846FEF7DCFD0346BB7349
:105120007B6819330C2205211846FEF7D3FD034690
:105130007B737B681933102205211846FEF7CAFDE0
:1051400003463B737B6819331A2205211846FEF784
:10515000C1FD0346FB727B6819331D2205211846E9
:10516000FEF7B8FD0346BB72FB7B002B0ED1BB7B69
:10517000002B0BD17B7B002B08D13B7B002B05D177
:10518000FB7A002B02D1BB7A002B01D0012300E077
:10519000002303F00103DBB218461037BD4680BD83
:1051A00080B582B000AF78607B6819331122052189
:1051B0001846FEF78FFD034618460837BD4680BDEA
:1051C00080B586B002AF786007F1080300221A604C
:1051D0001A7107F1080001230A220521FEF73DFD9F
:1051E00007F108030522009200220F21786801F0E0
:1051F00043FA00BF1037BD4680BD000080B584B0C3
:1052000000AF7860054BFB60FB6800220F217868D7
:1052100001F08CFA00BF1037BD4680BD00FF272487
:1052200080B584B000AF7860F823FB60FB68002293
:105230000F21786801F07AFA00BF1037BD4680BDB3
:1052400080B586B002AF786007F10C0304220092AB
:1052500000221021786801F0A7F9BB7B1B09DBB2A3
:105260001A46FB7B1B01134307EE903AF8EE677A70
:10527000B0EE670A1037BD4680BD000080B588B02B
:1052800000AF87ED030AC7ED020A0346FB71FB7905
:10529000012B04D1214BFB61214BBB6103E0214B6E
:1052A000FB61214BBB61D7ED027A67EEA77A97EDE0
:1052B000037AC7EE276AB0EE660A08F037FFF0EE11
:1052C000407AB2EE047A27EE877AD7ED077A77EE46
:1052D000677AC7ED057AD7ED057A9FED147AF4EE7B
:1052E000C77AF1EE10FA01D87B6910E0D7ED057AA4
:1052F0009FED0F7A37EE877AD7ED067A67EE277A39
:1053000097ED057A77EE277AC7ED057A7B6907EE88
:10531000903AB0EE670A2037BD4680BD3D8AE34231
:105320006D561540E17AF3426D56953F0000B0C2CC
:105330000000B04280B586B000AF87ED030AC7ED2C
:10534000020A0346FB71FB79012B02D1124B7B61F0
:1053500001E0124B7B61D7ED027A67EEA77A97EDF9
:10536000037AC7EE276AB0EE660A08F0DFFEF0EEB9
:10537000407AB2EE047A27EE877AD7ED057A77EE97
:10538000677AC7ED047A3B6907EE903AB0EE670A98
:105390001837BD4680BD00BF3D8AE342E17AF34243
:1053A00080B58AB000AF786007221521786801F0D7
:1053B00039F9034607EE903AF8EE677AC7ED097AB5
:1053C00002221221786801F02DF9034607EE903A87
:1053D000F8EE677AC7ED087A04221221786801F0A6
:1053E00021F9034607EE903AF8EE677AC7ED077A9F
:1053F0007868FFF725FF87ED060A062212217868F4
:1054000001F010F9034607EE903AF8EE677AC7ED1F
:10541000057A4FF090433B6197ED057AD7ED047A1A
:1054200067EE277A7B6893F825301846D7ED060A91
:10543000B0EE670AFFF77EFF87ED030AD7ED097A22
:1054400027EEA77AD7ED087A67EEA77A37EE277AA4
:10545000D7ED077A67EEA77A77EE277A7B6893F81D
:1054600025301846D7ED060AB0EE670AFFF762FF4F
:1054700087ED020A97ED037AD7ED027A77EE677A25
:10548000B0EE670A2837BD4680BD80B586B000AF54
:10549000786006221221786801F0C4F8034607EE0E
:1054A000903AF8EE677AC7ED057A7868FFF7C8FE9C
:1054B00087ED040A4FF09043FB6097ED057AD7ED36
:1054C000037A67EE277A7B6893F825301846D7ED84
:1054D000040AB0EE670AFFF7D1FEF0EE407AB0EEB4
:1054E000670A1837BD4680BD80B582B000AF7860CE
:1054F00039603B681B7819467868FFF7E3F93B6829
:1055000001331B7819467868FFF75DFA3B68023370
:105510001B7819467868FFF78CFA7B6893F8293076
:1055200019467868FFF7F4FA7B6893F82830194633
:105530007868FFF70CFB00BF0837BD4680BD000050
:1055400080B588B000AF786005221521786801F039
:1055500069F8034607EE903AF8EE677AFCEEE77AD0
:1055600017EE903AFB83FB8B9B099BB207EE903AB8
:10557000F8EEE77AFCEEE77A17EE903ABB83FB8B06
:1055800003F03F037B83BB8B07EE903AB8EEE77ADC
:105590007B8B07EE903AF8EEE76A9FED186AC6EE4D
:1055A000867A77EE277AC7ED057A4FF480522E215E
:1055B000786801F037F8034607EE903AF8EE677A1C
:1055C000C7ED047A97ED057AD7ED047A77EE677A1E
:1055D000FDEEE77A17EE903A002BB8BF5B4207EE7C
:1055E000903AF8EEE77AC7ED037AFB6807EE903A57
:1055F000B0EE670A2037BD4680BD00BF0000804284
:1056000080B584B000AF78607868FFF799FF87EDC8
:10561000020AB868FAF798FF23A3D3E90023FBF73F
:1056200067FA0346002B03D04FF00003FB6030E025
:10563000D7ED027AB1EE087AF4EEC77AF1EE10FAFD
:1056400024D5B868FAF780FF17A3D3E90023FBF746
:1056500063FA0346002B19D0B868FAF775FF14A354
:10566000D3E90023FAF7C8FF02460B461046194655
:1056700011A3D3E90023FAF707FE02460B461046B2
:105680001946FBF7B1FA0346FB6002E04FF07E5388
:10569000FB60FB6807EE903AB0EE670A1037BD4634
:1056A00080BD00BFAFF300806666666666660A402E
:1056B0003485CE6BEC12D93F50E449D23513F53F17
:1056C00080B588B000AF786007221521786800F0B7
:1056D000A9FF034607EE903AF8EE677AC7ED027A23
:1056E00002221221786800F09DFF034607EE903AEF
:1056F000F8EE677AC7ED037A04221221786800F089
:1057000091FF034607EE903AF8EE677AC7ED047A08
:1057100041F202022E21786800F084FF034607EE72
:10572000903AF8EE677AC7ED057ABB68FB61002313
:10573000BB6117E0BB699B0020333B44183BD3EDB2
:10574000007A97ED077AB4EEE77AF1EE10FA06D513
:10575000BB699B0020333B44183B1B68FB61BB6962
:105760000133BB61BB69022BE4DD97ED077AD7ED0E
:10577000057AC7EE276AF0EE667AB0EE670A203740
:10578000BD4680BD0000000080B584B000AFF86069
:10579000B9607A60F868FFF733FFF0EE407ABB68D3
:1057A000C3ED007AF868FFF78BFFF0EE407A7B6874
:1057B000C3ED007ABB68D3ED007AF5EE407AF1EEE6
:1057C00010FA0CD07B681B681846FAF7BDFE19A3C7
:1057D000D3E90023FBF796F90346002B02D0F7EE3E
:1057E000007A1EE0BB68D3ED007AF5EEC07AF1EEE8
:1057F00010FA14DD7B681B681846FAF7A5FE0DA3A6
:10580000D3E90023FBF76AF90346002B07D0BB68F6
:10581000D3ED007AB7EE007A77EE677A01E0DFED3C
:10582000047AB0EE670A1037BD4680BDAFF3008042
:1058300000000000CDCCCCCCCCCCEC3F80B598B0F7
:1058400002AF78607B6893F82530012B08D107F10F
:105850005403022248F670011846FEF764FA0CE081
:105860007B6893F82530022B07D107F154030222FD
:1058700048F69B011846FEF756FA07F1500304223A
:10588000B9491846FEF74FFA07F14C0302223521B9
:105890001846FEF748FA7B6893F82630002B07D1AC
:1058A00007F14803022216211846FEF73CFA18E0D9
:1058B0007B6893F82630012B07D107F148030222B9
:1058C00006211846FEF72FFA0BE07B6893F8263086
:1058D000022B06D107F14803022201211846FEF7E8
:1058E00022FA7B6893F82530012B07D107F1440396
:1058F000022287211846FEF716FA0BE07B6893F820
:105900002530022B06D107F1440302228D211846CF
:10591000FEF709FA7B6893F82730062B09D07B68DD
:1059200093F827300A2B04D07B6893F82730032B99
:105930000CD17B6893F82630002B2AD107F1400365
:10594000022264211846FEF7EEF922E07B6893F804
:105950002730012B11D07B6893F82630012B04D01F
:105960007B6893F82630022B13D107F14003022203
:1059700020211846FEF7D7F90BE07B6893F8263014
:10598000022B06D107F14003022210211846FEF730
:10599000CAF97B6893F82430082B19D17B6893F8F7
:1059A0002530012B07D107F13C0304226F4918462B
:1059B000FEF7B9F968E07B6893F82530022B63D1D4
:1059C00007F13C0304226A491846FEF7ACF95BE094
:1059D0007B6893F82430102B19D17B6893F825301D
:1059E000012B07D107F13C03042262491846FEF758
:1059F0009AF949E07B6893F82530022B44D107F1EE
:105A00003C0304225C491846FEF78DF93CE07B68B4
:105A100093F82430202B19D17B6893F82530012B83
:105A200007D107F13C03042254491846FEF77BF9DD
:105A30002AE07B6893F82530022B25D107F13C033F
:105A400004224F491846FEF76EF91DE07B6893F873
:105A50002430402B18D17B6893F82530012B07D1D7
:105A600007F13C03042247491846FEF75CF90BE0B6
:105A70007B6893F82530022B06D107F13C03042202
:105A800041491846FEF74FF97B6893F82730012B00
:105A900007D107F13803022210211846FEF743F917
:105AA00006E007F13803022228211846FEF73BF9E9
:105AB0007B6893F82930042B0CD07B6893F829304D
:105AC000072B07D007F124030122D8211846FEF73F
:105AD0002AF906E007F124030122BC211846FEF74B
